{
	"FeeCollector.sol": {
		"FeeCollector": {
			"abi": [
				{
					"inputs": [],
					"stateMutability": "nonpayable",
					"type": "constructor"
				},
				{
					"inputs": [],
					"name": "balance",
					"outputs": [
						{
							"internalType": "uint256",
							"name": "",
							"type": "uint256"
						}
					],
					"stateMutability": "view",
					"type": "function"
				},
				{
					"inputs": [],
					"name": "owner",
					"outputs": [
						{
							"internalType": "address",
							"name": "",
							"type": "address"
						}
					],
					"stateMutability": "view",
					"type": "function"
				},
				{
					"stateMutability": "payable",
					"type": "receive"
				}
			],
			"devdoc": {
				"kind": "dev",
				"methods": {},
				"version": 1
			},
			"evm": {
				"assembly": "    /* \"FeeCollector.sol\":60:254  contract FeeCollector {\r... */\n  mstore(0x40, 0x80)\n    /* \"FeeCollector.sol\":147:198  constructor() {\r... */\n  callvalue\n  dup1\n  iszero\n  tag_1\n  jumpi\n  0x00\n  dup1\n  revert\ntag_1:\n  pop\n    /* \"FeeCollector.sol\":180:190  msg.sender */\n  caller\n    /* \"FeeCollector.sol\":172:177  owner */\n  0x00\n  dup1\n    /* \"FeeCollector.sol\":172:190  owner = msg.sender */\n  0x0100\n  exp\n  dup2\n  sload\n  dup2\n  0xffffffffffffffffffffffffffffffffffffffff\n  mul\n  not\n  and\n  swap1\n  dup4\n  0xffffffffffffffffffffffffffffffffffffffff\n  and\n  mul\n  or\n  swap1\n  sstore\n  pop\n    /* \"FeeCollector.sol\":60:254  contract FeeCollector {\r... */\n  dataSize(sub_0)\n  dup1\n  dataOffset(sub_0)\n  0x00\n  codecopy\n  0x00\n  return\nstop\n\nsub_0: assembly {\n        /* \"FeeCollector.sol\":60:254  contract FeeCollector {\r... */\n      mstore(0x40, 0x80)\n      jumpi(tag_1, lt(calldatasize, 0x04))\n      shr(0xe0, calldataload(0x00))\n      dup1\n      0x8da5cb5b\n      eq\n      tag_3\n      jumpi\n      dup1\n      0xb69ef8a8\n      eq\n      tag_4\n      jumpi\n      jump(tag_2)\n    tag_1:\n      jumpi(tag_2, calldatasize)\n      stop\n    tag_2:\n      0x00\n      dup1\n      revert\n        /* \"FeeCollector.sol\":89:109  address public owner */\n    tag_3:\n      callvalue\n      dup1\n      iszero\n      tag_7\n      jumpi\n      0x00\n      dup1\n      revert\n    tag_7:\n      pop\n      tag_8\n      tag_9\n      jump\t// in\n    tag_8:\n      mload(0x40)\n      tag_10\n      swap2\n      swap1\n      tag_11\n      jump\t// in\n    tag_10:\n      mload(0x40)\n      dup1\n      swap2\n      sub\n      swap1\n      return\n        /* \"FeeCollector.sol\":116:138  uint256 public balance */\n    tag_4:\n      callvalue\n      dup1\n      iszero\n      tag_12\n      jumpi\n      0x00\n      dup1\n      revert\n    tag_12:\n      pop\n      tag_13\n      tag_14\n      jump\t// in\n    tag_13:\n      mload(0x40)\n      tag_15\n      swap2\n      swap1\n      tag_16\n      jump\t// in\n    tag_15:\n      mload(0x40)\n      dup1\n      swap2\n      sub\n      swap1\n      return\n        /* \"FeeCollector.sol\":89:109  address public owner */\n    tag_9:\n      0x00\n      dup1\n      sload\n      swap1\n      0x0100\n      exp\n      swap1\n      div\n      0xffffffffffffffffffffffffffffffffffffffff\n      and\n      dup2\n      jump\t// out\n        /* \"FeeCollector.sol\":116:138  uint256 public balance */\n    tag_14:\n      sload(0x01)\n      dup2\n      jump\t// out\n        /* \"#utility.yul\":7:125   */\n    tag_18:\n        /* \"#utility.yul\":94:118   */\n      tag_20\n        /* \"#utility.yul\":112:117   */\n      dup2\n        /* \"#utility.yul\":94:118   */\n      tag_21\n      jump\t// in\n    tag_20:\n        /* \"#utility.yul\":89:92   */\n      dup3\n        /* \"#utility.yul\":82:119   */\n      mstore\n        /* \"#utility.yul\":7:125   */\n      pop\n      pop\n      jump\t// out\n        /* \"#utility.yul\":131:249   */\n    tag_22:\n        /* \"#utility.yul\":218:242   */\n      tag_24\n        /* \"#utility.yul\":236:241   */\n      dup2\n        /* \"#utility.yul\":218:242   */\n      tag_25\n      jump\t// in\n    tag_24:\n        /* \"#utility.yul\":213:216   */\n      dup3\n        /* \"#utility.yul\":206:243   */\n      mstore\n        /* \"#utility.yul\":131:249   */\n      pop\n      pop\n      jump\t// out\n        /* \"#utility.yul\":255:477   */\n    tag_11:\n        /* \"#utility.yul\":348:352   */\n      0x00\n        /* \"#utility.yul\":386:388   */\n      0x20\n        /* \"#utility.yul\":375:384   */\n      dup3\n        /* \"#utility.yul\":371:389   */\n      add\n        /* \"#utility.yul\":363:389   */\n      swap1\n      pop\n        /* \"#utility.yul\":399:470   */\n      tag_27\n        /* \"#utility.yul\":467:468   */\n      0x00\n        /* \"#utility.yul\":456:465   */\n      dup4\n        /* \"#utility.yul\":452:469   */\n      add\n        /* \"#utility.yul\":443:449   */\n      dup5\n        /* \"#utility.yul\":399:470   */\n      tag_18\n      jump\t// in\n    tag_27:\n        /* \"#utility.yul\":255:477   */\n      swap3\n      swap2\n      pop\n      pop\n      jump\t// out\n        /* \"#utility.yul\":483:705   */\n    tag_16:\n        /* \"#utility.yul\":576:580   */\n      0x00\n        /* \"#utility.yul\":614:616   */\n      0x20\n        /* \"#utility.yul\":603:612   */\n      dup3\n        /* \"#utility.yul\":599:617   */\n      add\n        /* \"#utility.yul\":591:617   */\n      swap1\n      pop\n        /* \"#utility.yul\":627:698   */\n      tag_29\n        /* \"#utility.yul\":695:696   */\n      0x00\n        /* \"#utility.yul\":684:693   */\n      dup4\n        /* \"#utility.yul\":680:697   */\n      add\n        /* \"#utility.yul\":671:677   */\n      dup5\n        /* \"#utility.yul\":627:698   */\n      tag_22\n      jump\t// in\n    tag_29:\n        /* \"#utility.yul\":483:705   */\n      swap3\n      swap2\n      pop\n      pop\n      jump\t// out\n        /* \"#utility.yul\":711:807   */\n    tag_21:\n        /* \"#utility.yul\":748:755   */\n      0x00\n        /* \"#utility.yul\":777:801   */\n      tag_31\n        /* \"#utility.yul\":795:800   */\n      dup3\n        /* \"#utility.yul\":777:801   */\n      tag_32\n      jump\t// in\n    tag_31:\n        /* \"#utility.yul\":766:801   */\n      swap1\n      pop\n        /* \"#utility.yul\":711:807   */\n      swap2\n      swap1\n      pop\n      jump\t// out\n        /* \"#utility.yul\":813:939   */\n    tag_32:\n        /* \"#utility.yul\":850:857   */\n      0x00\n        /* \"#utility.yul\":890:932   */\n      0xffffffffffffffffffffffffffffffffffffffff\n        /* \"#utility.yul\":883:888   */\n      dup3\n        /* \"#utility.yul\":879:933   */\n      and\n        /* \"#utility.yul\":868:933   */\n      swap1\n      pop\n        /* \"#utility.yul\":813:939   */\n      swap2\n      swap1\n      pop\n      jump\t// out\n        /* \"#utility.yul\":945:1022   */\n    tag_25:\n        /* \"#utility.yul\":982:989   */\n      0x00\n        /* \"#utility.yul\":1011:1016   */\n      dup2\n        /* \"#utility.yul\":1000:1016   */\n      swap1\n      pop\n        /* \"#utility.yul\":945:1022   */\n      swap2\n      swap1\n      pop\n      jump\t// out\n\n    auxdata: 0xa2646970667358221220593254880d60f08a31a1827f95b7c69906af2d92ee148d2781eda0d76f1b0ce664736f6c63430008070033\n}\n",
				"bytecode": {
					"linkReferences": {},
					"object": "608060405234801561001057600080fd5b50336000806101000a81548173ffffffffffffffffffffffffffffffffffffffff021916908373ffffffffffffffffffffffffffffffffffffffff16021790555061017f806100606000396000f3fe60806040526004361061002d5760003560e01c80638da5cb5b14610039578063b69ef8a81461006457610034565b3661003457005b600080fd5b34801561004557600080fd5b5061004e61008f565b60405161005b91906100d7565b60405180910390f35b34801561007057600080fd5b506100796100b3565b60405161008691906100f2565b60405180910390f35b60008054906101000a900473ffffffffffffffffffffffffffffffffffffffff1681565b60015481565b6100c28161010d565b82525050565b6100d18161013f565b82525050565b60006020820190506100ec60008301846100b9565b92915050565b600060208201905061010760008301846100c8565b92915050565b60006101188261011f565b9050919050565b600073ffffffffffffffffffffffffffffffffffffffff82169050919050565b600081905091905056fea2646970667358221220593254880d60f08a31a1827f95b7c69906af2d92ee148d2781eda0d76f1b0ce664736f6c63430008070033",
					"opcodes": "PUSH1 0x80 PUSH1 0x40 MSTORE CALLVALUE DUP1 ISZERO PUSH2 0x10 JUMPI PUSH1 0x0 DUP1 REVERT JUMPDEST POP CALLER PUSH1 0x0 DUP1 PUSH2 0x100 EXP DUP2 SLOAD DUP2 PUSH20 0xFFFFFFFFFFFFFFFFFFFFFFFFFFFFFFFFFFFFFFFF MUL NOT AND SWAP1 DUP4 PUSH20 0xFFFFFFFFFFFFFFFFFFFFFFFFFFFFFFFFFFFFFFFF AND MUL OR SWAP1 SSTORE POP PUSH2 0x17F DUP1 PUSH2 0x60 PUSH1 0x0 CODECOPY PUSH1 0x0 RETURN INVALID PUSH1 0x80 PUSH1 0x40 MSTORE PUSH1 0x4 CALLDATASIZE LT PUSH2 0x2D JUMPI PUSH1 0x0 CALLDATALOAD PUSH1 0xE0 SHR DUP1 PUSH4 0x8DA5CB5B EQ PUSH2 0x39 JUMPI DUP1 PUSH4 0xB69EF8A8 EQ PUSH2 0x64 JUMPI PUSH2 0x34 JUMP JUMPDEST CALLDATASIZE PUSH2 0x34 JUMPI STOP JUMPDEST PUSH1 0x0 DUP1 REVERT JUMPDEST CALLVALUE DUP1 ISZERO PUSH2 0x45 JUMPI PUSH1 0x0 DUP1 REVERT JUMPDEST POP PUSH2 0x4E PUSH2 0x8F JUMP JUMPDEST PUSH1 0x40 MLOAD PUSH2 0x5B SWAP2 SWAP1 PUSH2 0xD7 JUMP JUMPDEST PUSH1 0x40 MLOAD DUP1 SWAP2 SUB SWAP1 RETURN JUMPDEST CALLVALUE DUP1 ISZERO PUSH2 0x70 JUMPI PUSH1 0x0 DUP1 REVERT JUMPDEST POP PUSH2 0x79 PUSH2 0xB3 JUMP JUMPDEST PUSH1 0x40 MLOAD PUSH2 0x86 SWAP2 SWAP1 PUSH2 0xF2 JUMP JUMPDEST PUSH1 0x40 MLOAD DUP1 SWAP2 SUB SWAP1 RETURN JUMPDEST PUSH1 0x0 DUP1 SLOAD SWAP1 PUSH2 0x100 EXP SWAP1 DIV PUSH20 0xFFFFFFFFFFFFFFFFFFFFFFFFFFFFFFFFFFFFFFFF AND DUP2 JUMP JUMPDEST PUSH1 0x1 SLOAD DUP2 JUMP JUMPDEST PUSH2 0xC2 DUP2 PUSH2 0x10D JUMP JUMPDEST DUP3 MSTORE POP POP JUMP JUMPDEST PUSH2 0xD1 DUP2 PUSH2 0x13F JUMP JUMPDEST DUP3 MSTORE POP POP JUMP JUMPDEST PUSH1 0x0 PUSH1 0x20 DUP3 ADD SWAP1 POP PUSH2 0xEC PUSH1 0x0 DUP4 ADD DUP5 PUSH2 0xB9 JUMP JUMPDEST SWAP3 SWAP2 POP POP JUMP JUMPDEST PUSH1 0x0 PUSH1 0x20 DUP3 ADD SWAP1 POP PUSH2 0x107 PUSH1 0x0 DUP4 ADD DUP5 PUSH2 0xC8 JUMP JUMPDEST SWAP3 SWAP2 POP POP JUMP JUMPDEST PUSH1 0x0 PUSH2 0x118 DUP3 PUSH2 0x11F JUMP JUMPDEST SWAP1 POP SWAP2 SWAP1 POP JUMP JUMPDEST PUSH1 0x0 PUSH20 0xFFFFFFFFFFFFFFFFFFFFFFFFFFFFFFFFFFFFFFFF DUP3 AND SWAP1 POP SWAP2 SWAP1 POP JUMP JUMPDEST PUSH1 0x0 DUP2 SWAP1 POP SWAP2 SWAP1 POP JUMP INVALID LOG2 PUSH5 0x6970667358 0x22 SLT KECCAK256 MSIZE ORIGIN SLOAD DUP9 0xD PUSH1 0xF0 DUP11 BALANCE LOG1 DUP3 PUSH32 0x95B7C69906AF2D92EE148D2781EDA0D76F1B0CE664736F6C6343000807003300 "
				},
				"gasEstimates": {
					"creation": {
						"codeDepositCost": "76600",
						"executionCost": "24389",
						"totalCost": "100989"
					},
					"external": {
						"balance()": "2429",
						"owner()": "2489"
					}
				},
				"methodIdentifiers": {
					"balance()": "b69ef8a8",
					"owner()": "8da5cb5b"
				}
			},
			"storageLayout": {
				"storage": [
					{
						"astId": 3,
						"contract": "FeeCollector.sol:FeeCollector",
						"label": "owner",
						"offset": 0,
						"slot": "0",
						"type": "t_address"
					},
					{
						"astId": 5,
						"contract": "FeeCollector.sol:FeeCollector",
						"label": "balance",
						"offset": 0,
						"slot": "1",
						"type": "t_uint256"
					}
				],
				"types": {
					"t_address": {
						"encoding": "inplace",
						"label": "address",
						"numberOfBytes": "20"
					},
					"t_uint256": {
						"encoding": "inplace",
						"label": "uint256",
						"numberOfBytes": "32"
					}
				}
			},
			"userdoc": {
				"kind": "user",
				"methods": {},
				"version": 1
			}
		}
	}
}