{
	"FeeCollector.sol": {
		"FeeCollector": {
			"abi": [
				{
					"inputs": [],
					"stateMutability": "nonpayable",
					"type": "constructor"
				},
				{
					"inputs": [],
					"name": "balance",
					"outputs": [
						{
							"internalType": "uint256",
							"name": "",
							"type": "uint256"
						}
					],
					"stateMutability": "view",
					"type": "function"
				},
				{
					"inputs": [],
					"name": "owner",
					"outputs": [
						{
							"internalType": "address",
							"name": "",
							"type": "address"
						}
					],
					"stateMutability": "view",
					"type": "function"
				},
				{
					"inputs": [
						{
							"internalType": "uint256",
							"name": "amount",
							"type": "uint256"
						},
						{
							"internalType": "address payable",
							"name": "destAddr",
							"type": "address"
						}
					],
					"name": "withdraw",
					"outputs": [],
					"stateMutability": "nonpayable",
					"type": "function"
				},
				{
					"stateMutability": "payable",
					"type": "receive"
				}
			],
			"devdoc": {
				"kind": "dev",
				"methods": {},
				"version": 1
			},
			"evm": {
				"assembly": "    /* \"FeeCollector.sol\":60:495  contract FeeCollector {\r... */\n  mstore(0x40, 0x80)\n    /* \"FeeCollector.sol\":147:198  constructor() {\r... */\n  callvalue\n  dup1\n  iszero\n  tag_1\n  jumpi\n  0x00\n  dup1\n  revert\ntag_1:\n  pop\n    /* \"FeeCollector.sol\":180:190  msg.sender */\n  caller\n    /* \"FeeCollector.sol\":172:177  owner */\n  0x00\n  dup1\n    /* \"FeeCollector.sol\":172:190  owner = msg.sender */\n  0x0100\n  exp\n  dup2\n  sload\n  dup2\n  0xffffffffffffffffffffffffffffffffffffffff\n  mul\n  not\n  and\n  swap1\n  dup4\n  0xffffffffffffffffffffffffffffffffffffffff\n  and\n  mul\n  or\n  swap1\n  sstore\n  pop\n    /* \"FeeCollector.sol\":60:495  contract FeeCollector {\r... */\n  dataSize(sub_0)\n  dup1\n  dataOffset(sub_0)\n  0x00\n  codecopy\n  0x00\n  return\nstop\n\nsub_0: assembly {\n        /* \"FeeCollector.sol\":60:495  contract FeeCollector {\r... */\n      mstore(0x40, 0x80)\n      jumpi(tag_1, lt(calldatasize, 0x04))\n      shr(0xe0, calldataload(0x00))\n      dup1\n      0xf714ce\n      eq\n      tag_3\n      jumpi\n      dup1\n      0x8da5cb5b\n      eq\n      tag_4\n      jumpi\n      dup1\n      0xb69ef8a8\n      eq\n      tag_5\n      jumpi\n      jump(tag_2)\n    tag_1:\n      jumpi(tag_2, calldatasize)\n        /* \"FeeCollector.sol\":255:264  msg.value */\n      callvalue\n        /* \"FeeCollector.sol\":244:251  balance */\n      0x01\n      0x00\n        /* \"FeeCollector.sol\":244:264  balance += msg.value */\n      dup3\n      dup3\n      sload\n      tag_8\n      swap2\n      swap1\n      tag_9\n      jump\t// in\n    tag_8:\n      swap3\n      pop\n      pop\n      dup2\n      swap1\n      sstore\n      pop\n        /* \"FeeCollector.sol\":60:495  contract FeeCollector {\r... */\n      stop\n    tag_2:\n      0x00\n      dup1\n      revert\n        /* \"FeeCollector.sol\":280:492  function withdraw(uint amount, address payable destAddr) public {\r... */\n    tag_3:\n      callvalue\n      dup1\n      iszero\n      tag_10\n      jumpi\n      0x00\n      dup1\n      revert\n    tag_10:\n      pop\n      tag_11\n      0x04\n      dup1\n      calldatasize\n      sub\n      dup2\n      add\n      swap1\n      tag_12\n      swap2\n      swap1\n      tag_13\n      jump\t// in\n    tag_12:\n      tag_14\n      jump\t// in\n    tag_11:\n      stop\n        /* \"FeeCollector.sol\":89:109  address public owner */\n    tag_4:\n      callvalue\n      dup1\n      iszero\n      tag_15\n      jumpi\n      0x00\n      dup1\n      revert\n    tag_15:\n      pop\n      tag_16\n      tag_17\n      jump\t// in\n    tag_16:\n      mload(0x40)\n      tag_18\n      swap2\n      swap1\n      tag_19\n      jump\t// in\n    tag_18:\n      mload(0x40)\n      dup1\n      swap2\n      sub\n      swap1\n      return\n        /* \"FeeCollector.sol\":116:138  uint256 public balance */\n    tag_5:\n      callvalue\n      dup1\n      iszero\n      tag_20\n      jumpi\n      0x00\n      dup1\n      revert\n    tag_20:\n      pop\n      tag_21\n      tag_22\n      jump\t// in\n    tag_21:\n      mload(0x40)\n      tag_23\n      swap2\n      swap1\n      tag_24\n      jump\t// in\n    tag_23:\n      mload(0x40)\n      dup1\n      swap2\n      sub\n      swap1\n      return\n        /* \"FeeCollector.sol\":280:492  function withdraw(uint amount, address payable destAddr) public {\r... */\n    tag_14:\n        /* \"FeeCollector.sol\":377:382  owner */\n      0x00\n      dup1\n      sload\n      swap1\n      0x0100\n      exp\n      swap1\n      div\n      0xffffffffffffffffffffffffffffffffffffffff\n      and\n        /* \"FeeCollector.sol\":363:382  msg.sender == owner */\n      0xffffffffffffffffffffffffffffffffffffffff\n      and\n        /* \"FeeCollector.sol\":363:373  msg.sender */\n      caller\n        /* \"FeeCollector.sol\":363:382  msg.sender == owner */\n      0xffffffffffffffffffffffffffffffffffffffff\n      and\n      eq\n        /* \"FeeCollector.sol\":355:410  require(msg.sender == owner, \"Only owner can withdraw\") */\n      tag_26\n      jumpi\n      mload(0x40)\n      0x08c379a000000000000000000000000000000000000000000000000000000000\n      dup2\n      mstore\n      0x04\n      add\n      tag_27\n      swap1\n      tag_28\n      jump\t// in\n    tag_27:\n      mload(0x40)\n      dup1\n      swap2\n      sub\n      swap1\n      revert\n    tag_26:\n        /* \"FeeCollector.sol\":431:439  destAddr */\n      dup1\n        /* \"FeeCollector.sol\":431:448  destAddr.transfer */\n      0xffffffffffffffffffffffffffffffffffffffff\n      and\n        /* \"FeeCollector.sol\":431:456  destAddr.transfer(amount) */\n      0x08fc\n        /* \"FeeCollector.sol\":449:455  amount */\n      dup4\n        /* \"FeeCollector.sol\":431:456  destAddr.transfer(amount) */\n      swap1\n      dup2\n      iszero\n      mul\n      swap1\n      mload(0x40)\n      0x00\n      mload(0x40)\n      dup1\n      dup4\n      sub\n      dup2\n      dup6\n      dup9\n      dup9\n      call\n      swap4\n      pop\n      pop\n      pop\n      pop\n      iszero\n      dup1\n      iszero\n      tag_30\n      jumpi\n      returndatasize\n      0x00\n      dup1\n      returndatacopy\n      revert(0x00, returndatasize)\n    tag_30:\n      pop\n        /* \"FeeCollector.sol\":478:484  amount */\n      dup2\n        /* \"FeeCollector.sol\":467:474  balance */\n      0x01\n      0x00\n        /* \"FeeCollector.sol\":467:484  balance -= amount */\n      dup3\n      dup3\n      sload\n      tag_31\n      swap2\n      swap1\n      tag_32\n      jump\t// in\n    tag_31:\n      swap3\n      pop\n      pop\n      dup2\n      swap1\n      sstore\n      pop\n        /* \"FeeCollector.sol\":280:492  function withdraw(uint amount, address payable destAddr) public {\r... */\n      pop\n      pop\n      jump\t// out\n        /* \"FeeCollector.sol\":89:109  address public owner */\n    tag_17:\n      0x00\n      dup1\n      sload\n      swap1\n      0x0100\n      exp\n      swap1\n      div\n      0xffffffffffffffffffffffffffffffffffffffff\n      and\n      dup2\n      jump\t// out\n        /* \"FeeCollector.sol\":116:138  uint256 public balance */\n    tag_22:\n      sload(0x01)\n      dup2\n      jump\t// out\n        /* \"#utility.yul\":7:162   */\n    tag_34:\n        /* \"#utility.yul\":61:66   */\n      0x00\n        /* \"#utility.yul\":99:105   */\n      dup2\n        /* \"#utility.yul\":86:106   */\n      calldataload\n        /* \"#utility.yul\":77:106   */\n      swap1\n      pop\n        /* \"#utility.yul\":115:156   */\n      tag_36\n        /* \"#utility.yul\":150:155   */\n      dup2\n        /* \"#utility.yul\":115:156   */\n      tag_37\n      jump\t// in\n    tag_36:\n        /* \"#utility.yul\":7:162   */\n      swap3\n      swap2\n      pop\n      pop\n      jump\t// out\n        /* \"#utility.yul\":168:307   */\n    tag_38:\n        /* \"#utility.yul\":214:219   */\n      0x00\n        /* \"#utility.yul\":252:258   */\n      dup2\n        /* \"#utility.yul\":239:259   */\n      calldataload\n        /* \"#utility.yul\":230:259   */\n      swap1\n      pop\n        /* \"#utility.yul\":268:301   */\n      tag_40\n        /* \"#utility.yul\":295:300   */\n      dup2\n        /* \"#utility.yul\":268:301   */\n      tag_41\n      jump\t// in\n    tag_40:\n        /* \"#utility.yul\":168:307   */\n      swap3\n      swap2\n      pop\n      pop\n      jump\t// out\n        /* \"#utility.yul\":313:803   */\n    tag_13:\n        /* \"#utility.yul\":389:395   */\n      0x00\n        /* \"#utility.yul\":397:403   */\n      dup1\n        /* \"#utility.yul\":446:448   */\n      0x40\n        /* \"#utility.yul\":434:443   */\n      dup4\n        /* \"#utility.yul\":425:432   */\n      dup6\n        /* \"#utility.yul\":421:444   */\n      sub\n        /* \"#utility.yul\":417:449   */\n      slt\n        /* \"#utility.yul\":414:533   */\n      iszero\n      tag_43\n      jumpi\n        /* \"#utility.yul\":452:531   */\n      tag_44\n      tag_45\n      jump\t// in\n    tag_44:\n        /* \"#utility.yul\":414:533   */\n    tag_43:\n        /* \"#utility.yul\":572:573   */\n      0x00\n        /* \"#utility.yul\":597:650   */\n      tag_46\n        /* \"#utility.yul\":642:649   */\n      dup6\n        /* \"#utility.yul\":633:639   */\n      dup3\n        /* \"#utility.yul\":622:631   */\n      dup7\n        /* \"#utility.yul\":618:640   */\n      add\n        /* \"#utility.yul\":597:650   */\n      tag_38\n      jump\t// in\n    tag_46:\n        /* \"#utility.yul\":587:650   */\n      swap3\n      pop\n        /* \"#utility.yul\":543:660   */\n      pop\n        /* \"#utility.yul\":699:701   */\n      0x20\n        /* \"#utility.yul\":725:786   */\n      tag_47\n        /* \"#utility.yul\":778:785   */\n      dup6\n        /* \"#utility.yul\":769:775   */\n      dup3\n        /* \"#utility.yul\":758:767   */\n      dup7\n        /* \"#utility.yul\":754:776   */\n      add\n        /* \"#utility.yul\":725:786   */\n      tag_34\n      jump\t// in\n    tag_47:\n        /* \"#utility.yul\":715:786   */\n      swap2\n      pop\n        /* \"#utility.yul\":670:796   */\n      pop\n        /* \"#utility.yul\":313:803   */\n      swap3\n      pop\n      swap3\n      swap1\n      pop\n      jump\t// out\n        /* \"#utility.yul\":809:927   */\n    tag_48:\n        /* \"#utility.yul\":896:920   */\n      tag_50\n        /* \"#utility.yul\":914:919   */\n      dup2\n        /* \"#utility.yul\":896:920   */\n      tag_51\n      jump\t// in\n    tag_50:\n        /* \"#utility.yul\":891:894   */\n      dup3\n        /* \"#utility.yul\":884:921   */\n      mstore\n        /* \"#utility.yul\":809:927   */\n      pop\n      pop\n      jump\t// out\n        /* \"#utility.yul\":933:1299   */\n    tag_52:\n        /* \"#utility.yul\":1075:1078   */\n      0x00\n        /* \"#utility.yul\":1096:1163   */\n      tag_54\n        /* \"#utility.yul\":1160:1162   */\n      0x17\n        /* \"#utility.yul\":1155:1158   */\n      dup4\n        /* \"#utility.yul\":1096:1163   */\n      tag_55\n      jump\t// in\n    tag_54:\n        /* \"#utility.yul\":1089:1163   */\n      swap2\n      pop\n        /* \"#utility.yul\":1172:1265   */\n      tag_56\n        /* \"#utility.yul\":1261:1264   */\n      dup3\n        /* \"#utility.yul\":1172:1265   */\n      tag_57\n      jump\t// in\n    tag_56:\n        /* \"#utility.yul\":1290:1292   */\n      0x20\n        /* \"#utility.yul\":1285:1288   */\n      dup3\n        /* \"#utility.yul\":1281:1293   */\n      add\n        /* \"#utility.yul\":1274:1293   */\n      swap1\n      pop\n        /* \"#utility.yul\":933:1299   */\n      swap2\n      swap1\n      pop\n      jump\t// out\n        /* \"#utility.yul\":1305:1423   */\n    tag_58:\n        /* \"#utility.yul\":1392:1416   */\n      tag_60\n        /* \"#utility.yul\":1410:1415   */\n      dup2\n        /* \"#utility.yul\":1392:1416   */\n      tag_61\n      jump\t// in\n    tag_60:\n        /* \"#utility.yul\":1387:1390   */\n      dup3\n        /* \"#utility.yul\":1380:1417   */\n      mstore\n        /* \"#utility.yul\":1305:1423   */\n      pop\n      pop\n      jump\t// out\n        /* \"#utility.yul\":1429:1651   */\n    tag_19:\n        /* \"#utility.yul\":1522:1526   */\n      0x00\n        /* \"#utility.yul\":1560:1562   */\n      0x20\n        /* \"#utility.yul\":1549:1558   */\n      dup3\n        /* \"#utility.yul\":1545:1563   */\n      add\n        /* \"#utility.yul\":1537:1563   */\n      swap1\n      pop\n        /* \"#utility.yul\":1573:1644   */\n      tag_63\n        /* \"#utility.yul\":1641:1642   */\n      0x00\n        /* \"#utility.yul\":1630:1639   */\n      dup4\n        /* \"#utility.yul\":1626:1643   */\n      add\n        /* \"#utility.yul\":1617:1623   */\n      dup5\n        /* \"#utility.yul\":1573:1644   */\n      tag_48\n      jump\t// in\n    tag_63:\n        /* \"#utility.yul\":1429:1651   */\n      swap3\n      swap2\n      pop\n      pop\n      jump\t// out\n        /* \"#utility.yul\":1657:2076   */\n    tag_28:\n        /* \"#utility.yul\":1823:1827   */\n      0x00\n        /* \"#utility.yul\":1861:1863   */\n      0x20\n        /* \"#utility.yul\":1850:1859   */\n      dup3\n        /* \"#utility.yul\":1846:1864   */\n      add\n        /* \"#utility.yul\":1838:1864   */\n      swap1\n      pop\n        /* \"#utility.yul\":1910:1919   */\n      dup2\n        /* \"#utility.yul\":1904:1908   */\n      dup2\n        /* \"#utility.yul\":1900:1920   */\n      sub\n        /* \"#utility.yul\":1896:1897   */\n      0x00\n        /* \"#utility.yul\":1885:1894   */\n      dup4\n        /* \"#utility.yul\":1881:1898   */\n      add\n        /* \"#utility.yul\":1874:1921   */\n      mstore\n        /* \"#utility.yul\":1938:2069   */\n      tag_65\n        /* \"#utility.yul\":2064:2068   */\n      dup2\n        /* \"#utility.yul\":1938:2069   */\n      tag_52\n      jump\t// in\n    tag_65:\n        /* \"#utility.yul\":1930:2069   */\n      swap1\n      pop\n        /* \"#utility.yul\":1657:2076   */\n      swap2\n      swap1\n      pop\n      jump\t// out\n        /* \"#utility.yul\":2082:2304   */\n    tag_24:\n        /* \"#utility.yul\":2175:2179   */\n      0x00\n        /* \"#utility.yul\":2213:2215   */\n      0x20\n        /* \"#utility.yul\":2202:2211   */\n      dup3\n        /* \"#utility.yul\":2198:2216   */\n      add\n        /* \"#utility.yul\":2190:2216   */\n      swap1\n      pop\n        /* \"#utility.yul\":2226:2297   */\n      tag_67\n        /* \"#utility.yul\":2294:2295   */\n      0x00\n        /* \"#utility.yul\":2283:2292   */\n      dup4\n        /* \"#utility.yul\":2279:2296   */\n      add\n        /* \"#utility.yul\":2270:2276   */\n      dup5\n        /* \"#utility.yul\":2226:2297   */\n      tag_58\n      jump\t// in\n    tag_67:\n        /* \"#utility.yul\":2082:2304   */\n      swap3\n      swap2\n      pop\n      pop\n      jump\t// out\n        /* \"#utility.yul\":2391:2560   */\n    tag_55:\n        /* \"#utility.yul\":2475:2486   */\n      0x00\n        /* \"#utility.yul\":2509:2515   */\n      dup3\n        /* \"#utility.yul\":2504:2507   */\n      dup3\n        /* \"#utility.yul\":2497:2516   */\n      mstore\n        /* \"#utility.yul\":2549:2553   */\n      0x20\n        /* \"#utility.yul\":2544:2547   */\n      dup3\n        /* \"#utility.yul\":2540:2554   */\n      add\n        /* \"#utility.yul\":2525:2554   */\n      swap1\n      pop\n        /* \"#utility.yul\":2391:2560   */\n      swap3\n      swap2\n      pop\n      pop\n      jump\t// out\n        /* \"#utility.yul\":2566:2871   */\n    tag_9:\n        /* \"#utility.yul\":2606:2609   */\n      0x00\n        /* \"#utility.yul\":2625:2645   */\n      tag_72\n        /* \"#utility.yul\":2643:2644   */\n      dup3\n        /* \"#utility.yul\":2625:2645   */\n      tag_61\n      jump\t// in\n    tag_72:\n        /* \"#utility.yul\":2620:2645   */\n      swap2\n      pop\n        /* \"#utility.yul\":2659:2679   */\n      tag_73\n        /* \"#utility.yul\":2677:2678   */\n      dup4\n        /* \"#utility.yul\":2659:2679   */\n      tag_61\n      jump\t// in\n    tag_73:\n        /* \"#utility.yul\":2654:2679   */\n      swap3\n      pop\n        /* \"#utility.yul\":2813:2814   */\n      dup3\n        /* \"#utility.yul\":2745:2811   */\n      0xffffffffffffffffffffffffffffffffffffffffffffffffffffffffffffffff\n        /* \"#utility.yul\":2741:2815   */\n      sub\n        /* \"#utility.yul\":2738:2739   */\n      dup3\n        /* \"#utility.yul\":2735:2816   */\n      gt\n        /* \"#utility.yul\":2732:2839   */\n      iszero\n      tag_74\n      jumpi\n        /* \"#utility.yul\":2819:2837   */\n      tag_75\n      tag_76\n      jump\t// in\n    tag_75:\n        /* \"#utility.yul\":2732:2839   */\n    tag_74:\n        /* \"#utility.yul\":2863:2864   */\n      dup3\n        /* \"#utility.yul\":2860:2861   */\n      dup3\n        /* \"#utility.yul\":2856:2865   */\n      add\n        /* \"#utility.yul\":2849:2865   */\n      swap1\n      pop\n        /* \"#utility.yul\":2566:2871   */\n      swap3\n      swap2\n      pop\n      pop\n      jump\t// out\n        /* \"#utility.yul\":2877:3068   */\n    tag_32:\n        /* \"#utility.yul\":2917:2921   */\n      0x00\n        /* \"#utility.yul\":2937:2957   */\n      tag_78\n        /* \"#utility.yul\":2955:2956   */\n      dup3\n        /* \"#utility.yul\":2937:2957   */\n      tag_61\n      jump\t// in\n    tag_78:\n        /* \"#utility.yul\":2932:2957   */\n      swap2\n      pop\n        /* \"#utility.yul\":2971:2991   */\n      tag_79\n        /* \"#utility.yul\":2989:2990   */\n      dup4\n        /* \"#utility.yul\":2971:2991   */\n      tag_61\n      jump\t// in\n    tag_79:\n        /* \"#utility.yul\":2966:2991   */\n      swap3\n      pop\n        /* \"#utility.yul\":3010:3011   */\n      dup3\n        /* \"#utility.yul\":3007:3008   */\n      dup3\n        /* \"#utility.yul\":3004:3012   */\n      lt\n        /* \"#utility.yul\":3001:3035   */\n      iszero\n      tag_80\n      jumpi\n        /* \"#utility.yul\":3015:3033   */\n      tag_81\n      tag_76\n      jump\t// in\n    tag_81:\n        /* \"#utility.yul\":3001:3035   */\n    tag_80:\n        /* \"#utility.yul\":3060:3061   */\n      dup3\n        /* \"#utility.yul\":3057:3058   */\n      dup3\n        /* \"#utility.yul\":3053:3062   */\n      sub\n        /* \"#utility.yul\":3045:3062   */\n      swap1\n      pop\n        /* \"#utility.yul\":2877:3068   */\n      swap3\n      swap2\n      pop\n      pop\n      jump\t// out\n        /* \"#utility.yul\":3074:3170   */\n    tag_51:\n        /* \"#utility.yul\":3111:3118   */\n      0x00\n        /* \"#utility.yul\":3140:3164   */\n      tag_83\n        /* \"#utility.yul\":3158:3163   */\n      dup3\n        /* \"#utility.yul\":3140:3164   */\n      tag_84\n      jump\t// in\n    tag_83:\n        /* \"#utility.yul\":3129:3164   */\n      swap1\n      pop\n        /* \"#utility.yul\":3074:3170   */\n      swap2\n      swap1\n      pop\n      jump\t// out\n        /* \"#utility.yul\":3176:3280   */\n    tag_85:\n        /* \"#utility.yul\":3221:3228   */\n      0x00\n        /* \"#utility.yul\":3250:3274   */\n      tag_87\n        /* \"#utility.yul\":3268:3273   */\n      dup3\n        /* \"#utility.yul\":3250:3274   */\n      tag_84\n      jump\t// in\n    tag_87:\n        /* \"#utility.yul\":3239:3274   */\n      swap1\n      pop\n        /* \"#utility.yul\":3176:3280   */\n      swap2\n      swap1\n      pop\n      jump\t// out\n        /* \"#utility.yul\":3286:3412   */\n    tag_84:\n        /* \"#utility.yul\":3323:3330   */\n      0x00\n        /* \"#utility.yul\":3363:3405   */\n      0xffffffffffffffffffffffffffffffffffffffff\n        /* \"#utility.yul\":3356:3361   */\n      dup3\n        /* \"#utility.yul\":3352:3406   */\n      and\n        /* \"#utility.yul\":3341:3406   */\n      swap1\n      pop\n        /* \"#utility.yul\":3286:3412   */\n      swap2\n      swap1\n      pop\n      jump\t// out\n        /* \"#utility.yul\":3418:3495   */\n    tag_61:\n        /* \"#utility.yul\":3455:3462   */\n      0x00\n        /* \"#utility.yul\":3484:3489   */\n      dup2\n        /* \"#utility.yul\":3473:3489   */\n      swap1\n      pop\n        /* \"#utility.yul\":3418:3495   */\n      swap2\n      swap1\n      pop\n      jump\t// out\n        /* \"#utility.yul\":3501:3681   */\n    tag_76:\n        /* \"#utility.yul\":3549:3626   */\n      0x4e487b7100000000000000000000000000000000000000000000000000000000\n        /* \"#utility.yul\":3546:3547   */\n      0x00\n        /* \"#utility.yul\":3539:3627   */\n      mstore\n        /* \"#utility.yul\":3646:3650   */\n      0x11\n        /* \"#utility.yul\":3643:3644   */\n      0x04\n        /* \"#utility.yul\":3636:3651   */\n      mstore\n        /* \"#utility.yul\":3670:3674   */\n      0x24\n        /* \"#utility.yul\":3667:3668   */\n      0x00\n        /* \"#utility.yul\":3660:3675   */\n      revert\n        /* \"#utility.yul\":3810:3927   */\n    tag_45:\n        /* \"#utility.yul\":3919:3920   */\n      0x00\n        /* \"#utility.yul\":3916:3917   */\n      dup1\n        /* \"#utility.yul\":3909:3921   */\n      revert\n        /* \"#utility.yul\":3933:4106   */\n    tag_57:\n        /* \"#utility.yul\":4073:4098   */\n      0x4f6e6c79206f776e65722063616e207769746864726177000000000000000000\n        /* \"#utility.yul\":4069:4070   */\n      0x00\n        /* \"#utility.yul\":4061:4067   */\n      dup3\n        /* \"#utility.yul\":4057:4071   */\n      add\n        /* \"#utility.yul\":4050:4099   */\n      mstore\n        /* \"#utility.yul\":3933:4106   */\n      pop\n      jump\t// out\n        /* \"#utility.yul\":4112:4250   */\n    tag_37:\n        /* \"#utility.yul\":4193:4225   */\n      tag_96\n        /* \"#utility.yul\":4219:4224   */\n      dup2\n        /* \"#utility.yul\":4193:4225   */\n      tag_85\n      jump\t// in\n    tag_96:\n        /* \"#utility.yul\":4186:4191   */\n      dup2\n        /* \"#utility.yul\":4183:4226   */\n      eq\n        /* \"#utility.yul\":4173:4244   */\n      tag_97\n      jumpi\n        /* \"#utility.yul\":4240:4241   */\n      0x00\n        /* \"#utility.yul\":4237:4238   */\n      dup1\n        /* \"#utility.yul\":4230:4242   */\n      revert\n        /* \"#utility.yul\":4173:4244   */\n    tag_97:\n        /* \"#utility.yul\":4112:4250   */\n      pop\n      jump\t// out\n        /* \"#utility.yul\":4256:4378   */\n    tag_41:\n        /* \"#utility.yul\":4329:4353   */\n      tag_99\n        /* \"#utility.yul\":4347:4352   */\n      dup2\n        /* \"#utility.yul\":4329:4353   */\n      tag_61\n      jump\t// in\n    tag_99:\n        /* \"#utility.yul\":4322:4327   */\n      dup2\n        /* \"#utility.yul\":4319:4354   */\n      eq\n        /* \"#utility.yul\":4309:4372   */\n      tag_100\n      jumpi\n        /* \"#utility.yul\":4368:4369   */\n      0x00\n        /* \"#utility.yul\":4365:4366   */\n      dup1\n        /* \"#utility.yul\":4358:4370   */\n      revert\n        /* \"#utility.yul\":4309:4372   */\n    tag_100:\n        /* \"#utility.yul\":4256:4378   */\n      pop\n      jump\t// out\n\n    auxdata: 0xa2646970667358221220da4ae443dead6abe431fc19dd943fe375562974427a687b38999673a984d16a264736f6c63430008070033\n}\n",
				"bytecode": {
					"linkReferences": {},
					"object": "608060405234801561001057600080fd5b50336000806101000a81548173ffffffffffffffffffffffffffffffffffffffff021916908373ffffffffffffffffffffffffffffffffffffffff1602179055506104a2806100606000396000f3fe6080604052600436106100375760003560e01c8062f714ce1461005c5780638da5cb5b14610085578063b69ef8a8146100b057610057565b3661005757346001600082825461004e9190610309565b92505081905550005b600080fd5b34801561006857600080fd5b50610083600480360381019061007e9190610221565b6100db565b005b34801561009157600080fd5b5061009a6101cd565b6040516100a791906102a2565b60405180910390f35b3480156100bc57600080fd5b506100c56101f1565b6040516100d291906102dd565b60405180910390f35b60008054906101000a900473ffffffffffffffffffffffffffffffffffffffff1673ffffffffffffffffffffffffffffffffffffffff163373ffffffffffffffffffffffffffffffffffffffff1614610169576040517f08c379a0000000000000000000000000000000000000000000000000000000008152600401610160906102bd565b60405180910390fd5b8073ffffffffffffffffffffffffffffffffffffffff166108fc839081150290604051600060405180830381858888f193505050501580156101af573d6000803e3d6000fd5b5081600160008282546101c2919061035f565b925050819055505050565b60008054906101000a900473ffffffffffffffffffffffffffffffffffffffff1681565b60015481565b6000813590506102068161043e565b92915050565b60008135905061021b81610455565b92915050565b6000806040838503121561023857610237610410565b5b60006102468582860161020c565b9250506020610257858286016101f7565b9150509250929050565b61026a81610393565b82525050565b600061027d6017836102f8565b915061028882610415565b602082019050919050565b61029c816103d7565b82525050565b60006020820190506102b76000830184610261565b92915050565b600060208201905081810360008301526102d681610270565b9050919050565b60006020820190506102f26000830184610293565b92915050565b600082825260208201905092915050565b6000610314826103d7565b915061031f836103d7565b9250827fffffffffffffffffffffffffffffffffffffffffffffffffffffffffffffffff03821115610354576103536103e1565b5b828201905092915050565b600061036a826103d7565b9150610375836103d7565b925082821015610388576103876103e1565b5b828203905092915050565b600061039e826103b7565b9050919050565b60006103b0826103b7565b9050919050565b600073ffffffffffffffffffffffffffffffffffffffff82169050919050565b6000819050919050565b7f4e487b7100000000000000000000000000000000000000000000000000000000600052601160045260246000fd5b600080fd5b7f4f6e6c79206f776e65722063616e207769746864726177000000000000000000600082015250565b610447816103a5565b811461045257600080fd5b50565b61045e816103d7565b811461046957600080fd5b5056fea2646970667358221220da4ae443dead6abe431fc19dd943fe375562974427a687b38999673a984d16a264736f6c63430008070033",
					"opcodes": "PUSH1 0x80 PUSH1 0x40 MSTORE CALLVALUE DUP1 ISZERO PUSH2 0x10 JUMPI PUSH1 0x0 DUP1 REVERT JUMPDEST POP CALLER PUSH1 0x0 DUP1 PUSH2 0x100 EXP DUP2 SLOAD DUP2 PUSH20 0xFFFFFFFFFFFFFFFFFFFFFFFFFFFFFFFFFFFFFFFF MUL NOT AND SWAP1 DUP4 PUSH20 0xFFFFFFFFFFFFFFFFFFFFFFFFFFFFFFFFFFFFFFFF AND MUL OR SWAP1 SSTORE POP PUSH2 0x4A2 DUP1 PUSH2 0x60 PUSH1 0x0 CODECOPY PUSH1 0x0 RETURN INVALID PUSH1 0x80 PUSH1 0x40 MSTORE PUSH1 0x4 CALLDATASIZE LT PUSH2 0x37 JUMPI PUSH1 0x0 CALLDATALOAD PUSH1 0xE0 SHR DUP1 PUSH3 0xF714CE EQ PUSH2 0x5C JUMPI DUP1 PUSH4 0x8DA5CB5B EQ PUSH2 0x85 JUMPI DUP1 PUSH4 0xB69EF8A8 EQ PUSH2 0xB0 JUMPI PUSH2 0x57 JUMP JUMPDEST CALLDATASIZE PUSH2 0x57 JUMPI CALLVALUE PUSH1 0x1 PUSH1 0x0 DUP3 DUP3 SLOAD PUSH2 0x4E SWAP2 SWAP1 PUSH2 0x309 JUMP JUMPDEST SWAP3 POP POP DUP2 SWAP1 SSTORE POP STOP JUMPDEST PUSH1 0x0 DUP1 REVERT JUMPDEST CALLVALUE DUP1 ISZERO PUSH2 0x68 JUMPI PUSH1 0x0 DUP1 REVERT JUMPDEST POP PUSH2 0x83 PUSH1 0x4 DUP1 CALLDATASIZE SUB DUP2 ADD SWAP1 PUSH2 0x7E SWAP2 SWAP1 PUSH2 0x221 JUMP JUMPDEST PUSH2 0xDB JUMP JUMPDEST STOP JUMPDEST CALLVALUE DUP1 ISZERO PUSH2 0x91 JUMPI PUSH1 0x0 DUP1 REVERT JUMPDEST POP PUSH2 0x9A PUSH2 0x1CD JUMP JUMPDEST PUSH1 0x40 MLOAD PUSH2 0xA7 SWAP2 SWAP1 PUSH2 0x2A2 JUMP JUMPDEST PUSH1 0x40 MLOAD DUP1 SWAP2 SUB SWAP1 RETURN JUMPDEST CALLVALUE DUP1 ISZERO PUSH2 0xBC JUMPI PUSH1 0x0 DUP1 REVERT JUMPDEST POP PUSH2 0xC5 PUSH2 0x1F1 JUMP JUMPDEST PUSH1 0x40 MLOAD PUSH2 0xD2 SWAP2 SWAP1 PUSH2 0x2DD JUMP JUMPDEST PUSH1 0x40 MLOAD DUP1 SWAP2 SUB SWAP1 RETURN JUMPDEST PUSH1 0x0 DUP1 SLOAD SWAP1 PUSH2 0x100 EXP SWAP1 DIV PUSH20 0xFFFFFFFFFFFFFFFFFFFFFFFFFFFFFFFFFFFFFFFF AND PUSH20 0xFFFFFFFFFFFFFFFFFFFFFFFFFFFFFFFFFFFFFFFF AND CALLER PUSH20 0xFFFFFFFFFFFFFFFFFFFFFFFFFFFFFFFFFFFFFFFF AND EQ PUSH2 0x169 JUMPI PUSH1 0x40 MLOAD PUSH32 0x8C379A000000000000000000000000000000000000000000000000000000000 DUP2 MSTORE PUSH1 0x4 ADD PUSH2 0x160 SWAP1 PUSH2 0x2BD JUMP JUMPDEST PUSH1 0x40 MLOAD DUP1 SWAP2 SUB SWAP1 REVERT JUMPDEST DUP1 PUSH20 0xFFFFFFFFFFFFFFFFFFFFFFFFFFFFFFFFFFFFFFFF AND PUSH2 0x8FC DUP4 SWAP1 DUP2 ISZERO MUL SWAP1 PUSH1 0x40 MLOAD PUSH1 0x0 PUSH1 0x40 MLOAD DUP1 DUP4 SUB DUP2 DUP6 DUP9 DUP9 CALL SWAP4 POP POP POP POP ISZERO DUP1 ISZERO PUSH2 0x1AF JUMPI RETURNDATASIZE PUSH1 0x0 DUP1 RETURNDATACOPY RETURNDATASIZE PUSH1 0x0 REVERT JUMPDEST POP DUP2 PUSH1 0x1 PUSH1 0x0 DUP3 DUP3 SLOAD PUSH2 0x1C2 SWAP2 SWAP1 PUSH2 0x35F JUMP JUMPDEST SWAP3 POP POP DUP2 SWAP1 SSTORE POP POP POP JUMP JUMPDEST PUSH1 0x0 DUP1 SLOAD SWAP1 PUSH2 0x100 EXP SWAP1 DIV PUSH20 0xFFFFFFFFFFFFFFFFFFFFFFFFFFFFFFFFFFFFFFFF AND DUP2 JUMP JUMPDEST PUSH1 0x1 SLOAD DUP2 JUMP JUMPDEST PUSH1 0x0 DUP2 CALLDATALOAD SWAP1 POP PUSH2 0x206 DUP2 PUSH2 0x43E JUMP JUMPDEST SWAP3 SWAP2 POP POP JUMP JUMPDEST PUSH1 0x0 DUP2 CALLDATALOAD SWAP1 POP PUSH2 0x21B DUP2 PUSH2 0x455 JUMP JUMPDEST SWAP3 SWAP2 POP POP JUMP JUMPDEST PUSH1 0x0 DUP1 PUSH1 0x40 DUP4 DUP6 SUB SLT ISZERO PUSH2 0x238 JUMPI PUSH2 0x237 PUSH2 0x410 JUMP JUMPDEST JUMPDEST PUSH1 0x0 PUSH2 0x246 DUP6 DUP3 DUP7 ADD PUSH2 0x20C JUMP JUMPDEST SWAP3 POP POP PUSH1 0x20 PUSH2 0x257 DUP6 DUP3 DUP7 ADD PUSH2 0x1F7 JUMP JUMPDEST SWAP2 POP POP SWAP3 POP SWAP3 SWAP1 POP JUMP JUMPDEST PUSH2 0x26A DUP2 PUSH2 0x393 JUMP JUMPDEST DUP3 MSTORE POP POP JUMP JUMPDEST PUSH1 0x0 PUSH2 0x27D PUSH1 0x17 DUP4 PUSH2 0x2F8 JUMP JUMPDEST SWAP2 POP PUSH2 0x288 DUP3 PUSH2 0x415 JUMP JUMPDEST PUSH1 0x20 DUP3 ADD SWAP1 POP SWAP2 SWAP1 POP JUMP JUMPDEST PUSH2 0x29C DUP2 PUSH2 0x3D7 JUMP JUMPDEST DUP3 MSTORE POP POP JUMP JUMPDEST PUSH1 0x0 PUSH1 0x20 DUP3 ADD SWAP1 POP PUSH2 0x2B7 PUSH1 0x0 DUP4 ADD DUP5 PUSH2 0x261 JUMP JUMPDEST SWAP3 SWAP2 POP POP JUMP JUMPDEST PUSH1 0x0 PUSH1 0x20 DUP3 ADD SWAP1 POP DUP2 DUP2 SUB PUSH1 0x0 DUP4 ADD MSTORE PUSH2 0x2D6 DUP2 PUSH2 0x270 JUMP JUMPDEST SWAP1 POP SWAP2 SWAP1 POP JUMP JUMPDEST PUSH1 0x0 PUSH1 0x20 DUP3 ADD SWAP1 POP PUSH2 0x2F2 PUSH1 0x0 DUP4 ADD DUP5 PUSH2 0x293 JUMP JUMPDEST SWAP3 SWAP2 POP POP JUMP JUMPDEST PUSH1 0x0 DUP3 DUP3 MSTORE PUSH1 0x20 DUP3 ADD SWAP1 POP SWAP3 SWAP2 POP POP JUMP JUMPDEST PUSH1 0x0 PUSH2 0x314 DUP3 PUSH2 0x3D7 JUMP JUMPDEST SWAP2 POP PUSH2 0x31F DUP4 PUSH2 0x3D7 JUMP JUMPDEST SWAP3 POP DUP3 PUSH32 0xFFFFFFFFFFFFFFFFFFFFFFFFFFFFFFFFFFFFFFFFFFFFFFFFFFFFFFFFFFFFFFFF SUB DUP3 GT ISZERO PUSH2 0x354 JUMPI PUSH2 0x353 PUSH2 0x3E1 JUMP JUMPDEST JUMPDEST DUP3 DUP3 ADD SWAP1 POP SWAP3 SWAP2 POP POP JUMP JUMPDEST PUSH1 0x0 PUSH2 0x36A DUP3 PUSH2 0x3D7 JUMP JUMPDEST SWAP2 POP PUSH2 0x375 DUP4 PUSH2 0x3D7 JUMP JUMPDEST SWAP3 POP DUP3 DUP3 LT ISZERO PUSH2 0x388 JUMPI PUSH2 0x387 PUSH2 0x3E1 JUMP JUMPDEST JUMPDEST DUP3 DUP3 SUB SWAP1 POP SWAP3 SWAP2 POP POP JUMP JUMPDEST PUSH1 0x0 PUSH2 0x39E DUP3 PUSH2 0x3B7 JUMP JUMPDEST SWAP1 POP SWAP2 SWAP1 POP JUMP JUMPDEST PUSH1 0x0 PUSH2 0x3B0 DUP3 PUSH2 0x3B7 JUMP JUMPDEST SWAP1 POP SWAP2 SWAP1 POP JUMP JUMPDEST PUSH1 0x0 PUSH20 0xFFFFFFFFFFFFFFFFFFFFFFFFFFFFFFFFFFFFFFFF DUP3 AND SWAP1 POP SWAP2 SWAP1 POP JUMP JUMPDEST PUSH1 0x0 DUP2 SWAP1 POP SWAP2 SWAP1 POP JUMP JUMPDEST PUSH32 0x4E487B7100000000000000000000000000000000000000000000000000000000 PUSH1 0x0 MSTORE PUSH1 0x11 PUSH1 0x4 MSTORE PUSH1 0x24 PUSH1 0x0 REVERT JUMPDEST PUSH1 0x0 DUP1 REVERT JUMPDEST PUSH32 0x4F6E6C79206F776E65722063616E207769746864726177000000000000000000 PUSH1 0x0 DUP3 ADD MSTORE POP JUMP JUMPDEST PUSH2 0x447 DUP2 PUSH2 0x3A5 JUMP JUMPDEST DUP2 EQ PUSH2 0x452 JUMPI PUSH1 0x0 DUP1 REVERT JUMPDEST POP JUMP JUMPDEST PUSH2 0x45E DUP2 PUSH2 0x3D7 JUMP JUMPDEST DUP2 EQ PUSH2 0x469 JUMPI PUSH1 0x0 DUP1 REVERT JUMPDEST POP JUMP INVALID LOG2 PUSH5 0x6970667358 0x22 SLT KECCAK256 0xDA 0x4A 0xE4 NUMBER 0xDE 0xAD PUSH11 0xBE431FC19DD943FE375562 SWAP8 DIFFICULTY 0x27 0xA6 DUP8 0xB3 DUP10 SWAP10 PUSH8 0x3A984D16A264736F PUSH13 0x63430008070033000000000000 "
				},
				"gasEstimates": {
					"creation": {
						"codeDepositCost": "237200",
						"executionCost": "24547",
						"totalCost": "261747"
					},
					"external": {
						"balance()": "2451",
						"owner()": "2511",
						"withdraw(uint256,address)": "infinite"
					}
				},
				"methodIdentifiers": {
					"balance()": "b69ef8a8",
					"owner()": "8da5cb5b",
					"withdraw(uint256,address)": "00f714ce"
				}
			},
			"storageLayout": {
				"storage": [
					{
						"astId": 3,
						"contract": "FeeCollector.sol:FeeCollector",
						"label": "owner",
						"offset": 0,
						"slot": "0",
						"type": "t_address"
					},
					{
						"astId": 5,
						"contract": "FeeCollector.sol:FeeCollector",
						"label": "balance",
						"offset": 0,
						"slot": "1",
						"type": "t_uint256"
					}
				],
				"types": {
					"t_address": {
						"encoding": "inplace",
						"label": "address",
						"numberOfBytes": "20"
					},
					"t_uint256": {
						"encoding": "inplace",
						"label": "uint256",
						"numberOfBytes": "32"
					}
				}
			},
			"userdoc": {
				"kind": "user",
				"methods": {},
				"version": 1
			}
		}
	}
}