{
	"FeeCollector.sol": {
		"FeeCollector": {
			"abi": [
				{
					"inputs": [],
					"stateMutability": "nonpayable",
					"type": "constructor"
				},
				{
					"inputs": [],
					"name": "balance",
					"outputs": [
						{
							"internalType": "uint256",
							"name": "",
							"type": "uint256"
						}
					],
					"stateMutability": "view",
					"type": "function"
				},
				{
					"inputs": [],
					"name": "owner",
					"outputs": [
						{
							"internalType": "address",
							"name": "",
							"type": "address"
						}
					],
					"stateMutability": "view",
					"type": "function"
				},
				{
					"inputs": [
						{
							"internalType": "uint256",
							"name": "amount",
							"type": "uint256"
						},
						{
							"internalType": "address payable",
							"name": "destAddr",
							"type": "address"
						}
					],
					"name": "withdraw",
					"outputs": [],
					"stateMutability": "nonpayable",
					"type": "function"
				},
				{
					"stateMutability": "payable",
					"type": "receive"
				}
			],
			"devdoc": {
				"kind": "dev",
				"methods": {},
				"version": 1
			},
			"evm": {
				"assembly": "    /* \"FeeCollector.sol\":60:544  contract FeeCollector {\r... */\n  mstore(0x40, 0x80)\n    /* \"FeeCollector.sol\":147:198  constructor() {\r... */\n  callvalue\n  dup1\n  iszero\n  tag_1\n  jumpi\n  0x00\n  dup1\n  revert\ntag_1:\n  pop\n    /* \"FeeCollector.sol\":180:190  msg.sender */\n  caller\n    /* \"FeeCollector.sol\":172:177  owner */\n  0x00\n  dup1\n    /* \"FeeCollector.sol\":172:190  owner = msg.sender */\n  0x0100\n  exp\n  dup2\n  sload\n  dup2\n  0xffffffffffffffffffffffffffffffffffffffff\n  mul\n  not\n  and\n  swap1\n  dup4\n  0xffffffffffffffffffffffffffffffffffffffff\n  and\n  mul\n  or\n  swap1\n  sstore\n  pop\n    /* \"FeeCollector.sol\":60:544  contract FeeCollector {\r... */\n  dataSize(sub_0)\n  dup1\n  dataOffset(sub_0)\n  0x00\n  codecopy\n  0x00\n  return\nstop\n\nsub_0: assembly {\n        /* \"FeeCollector.sol\":60:544  contract FeeCollector {\r... */\n      mstore(0x40, 0x80)\n      jumpi(tag_1, lt(calldatasize, 0x04))\n      shr(0xe0, calldataload(0x00))\n      dup1\n      0xf714ce\n      eq\n      tag_3\n      jumpi\n      dup1\n      0x8da5cb5b\n      eq\n      tag_4\n      jumpi\n      dup1\n      0xb69ef8a8\n      eq\n      tag_5\n      jumpi\n      jump(tag_2)\n    tag_1:\n      jumpi(tag_2, calldatasize)\n        /* \"FeeCollector.sol\":255:264  msg.value */\n      callvalue\n        /* \"FeeCollector.sol\":244:251  balance */\n      0x01\n      0x00\n        /* \"FeeCollector.sol\":244:264  balance += msg.value */\n      dup3\n      dup3\n      sload\n      tag_8\n      swap2\n      swap1\n      tag_9\n      jump\t// in\n    tag_8:\n      swap3\n      pop\n      pop\n      dup2\n      swap1\n      sstore\n      pop\n        /* \"FeeCollector.sol\":60:544  contract FeeCollector {\r... */\n      stop\n    tag_2:\n      0x00\n      dup1\n      revert\n        /* \"FeeCollector.sol\":280:541  function withdraw(uint amount, address payable destAddr) public {\r... */\n    tag_3:\n      callvalue\n      dup1\n      iszero\n      tag_10\n      jumpi\n      0x00\n      dup1\n      revert\n    tag_10:\n      pop\n      tag_11\n      0x04\n      dup1\n      calldatasize\n      sub\n      dup2\n      add\n      swap1\n      tag_12\n      swap2\n      swap1\n      tag_13\n      jump\t// in\n    tag_12:\n      tag_14\n      jump\t// in\n    tag_11:\n      stop\n        /* \"FeeCollector.sol\":89:109  address public owner */\n    tag_4:\n      callvalue\n      dup1\n      iszero\n      tag_15\n      jumpi\n      0x00\n      dup1\n      revert\n    tag_15:\n      pop\n      tag_16\n      tag_17\n      jump\t// in\n    tag_16:\n      mload(0x40)\n      tag_18\n      swap2\n      swap1\n      tag_19\n      jump\t// in\n    tag_18:\n      mload(0x40)\n      dup1\n      swap2\n      sub\n      swap1\n      return\n        /* \"FeeCollector.sol\":116:138  uint256 public balance */\n    tag_5:\n      callvalue\n      dup1\n      iszero\n      tag_20\n      jumpi\n      0x00\n      dup1\n      revert\n    tag_20:\n      pop\n      tag_21\n      tag_22\n      jump\t// in\n    tag_21:\n      mload(0x40)\n      tag_23\n      swap2\n      swap1\n      tag_24\n      jump\t// in\n    tag_23:\n      mload(0x40)\n      dup1\n      swap2\n      sub\n      swap1\n      return\n        /* \"FeeCollector.sol\":280:541  function withdraw(uint amount, address payable destAddr) public {\r... */\n    tag_14:\n        /* \"FeeCollector.sol\":377:382  owner */\n      0x00\n      dup1\n      sload\n      swap1\n      0x0100\n      exp\n      swap1\n      div\n      0xffffffffffffffffffffffffffffffffffffffff\n      and\n        /* \"FeeCollector.sol\":363:382  msg.sender == owner */\n      0xffffffffffffffffffffffffffffffffffffffff\n      and\n        /* \"FeeCollector.sol\":363:373  msg.sender */\n      caller\n        /* \"FeeCollector.sol\":363:382  msg.sender == owner */\n      0xffffffffffffffffffffffffffffffffffffffff\n      and\n      eq\n        /* \"FeeCollector.sol\":355:410  require(msg.sender == owner, \"Only owner can withdraw\") */\n      tag_26\n      jumpi\n      mload(0x40)\n      0x08c379a000000000000000000000000000000000000000000000000000000000\n      dup2\n      mstore\n      0x04\n      add\n      tag_27\n      swap1\n      tag_28\n      jump\t// in\n    tag_27:\n      mload(0x40)\n      dup1\n      swap2\n      sub\n      swap1\n      revert\n    tag_26:\n        /* \"FeeCollector.sol\":439:446  balance */\n      sload(0x01)\n        /* \"FeeCollector.sol\":429:435  amount */\n      dup3\n        /* \"FeeCollector.sol\":429:446  amount <= balance */\n      gt\n      iszero\n        /* \"FeeCollector.sol\":421:469  require(amount <= balance, \"Insufficient funds\") */\n      tag_29\n      jumpi\n      mload(0x40)\n      0x08c379a000000000000000000000000000000000000000000000000000000000\n      dup2\n      mstore\n      0x04\n      add\n      tag_30\n      swap1\n      tag_31\n      jump\t// in\n    tag_30:\n      mload(0x40)\n      dup1\n      swap2\n      sub\n      swap1\n      revert\n    tag_29:\n        /* \"FeeCollector.sol\":480:488  destAddr */\n      dup1\n        /* \"FeeCollector.sol\":480:497  destAddr.transfer */\n      0xffffffffffffffffffffffffffffffffffffffff\n      and\n        /* \"FeeCollector.sol\":480:505  destAddr.transfer(amount) */\n      0x08fc\n        /* \"FeeCollector.sol\":498:504  amount */\n      dup4\n        /* \"FeeCollector.sol\":480:505  destAddr.transfer(amount) */\n      swap1\n      dup2\n      iszero\n      mul\n      swap1\n      mload(0x40)\n      0x00\n      mload(0x40)\n      dup1\n      dup4\n      sub\n      dup2\n      dup6\n      dup9\n      dup9\n      call\n      swap4\n      pop\n      pop\n      pop\n      pop\n      iszero\n      dup1\n      iszero\n      tag_33\n      jumpi\n      returndatasize\n      0x00\n      dup1\n      returndatacopy\n      revert(0x00, returndatasize)\n    tag_33:\n      pop\n        /* \"FeeCollector.sol\":527:533  amount */\n      dup2\n        /* \"FeeCollector.sol\":516:523  balance */\n      0x01\n      0x00\n        /* \"FeeCollector.sol\":516:533  balance -= amount */\n      dup3\n      dup3\n      sload\n      tag_34\n      swap2\n      swap1\n      tag_35\n      jump\t// in\n    tag_34:\n      swap3\n      pop\n      pop\n      dup2\n      swap1\n      sstore\n      pop\n        /* \"FeeCollector.sol\":280:541  function withdraw(uint amount, address payable destAddr) public {\r... */\n      pop\n      pop\n      jump\t// out\n        /* \"FeeCollector.sol\":89:109  address public owner */\n    tag_17:\n      0x00\n      dup1\n      sload\n      swap1\n      0x0100\n      exp\n      swap1\n      div\n      0xffffffffffffffffffffffffffffffffffffffff\n      and\n      dup2\n      jump\t// out\n        /* \"FeeCollector.sol\":116:138  uint256 public balance */\n    tag_22:\n      sload(0x01)\n      dup2\n      jump\t// out\n        /* \"#utility.yul\":7:162   */\n    tag_37:\n        /* \"#utility.yul\":61:66   */\n      0x00\n        /* \"#utility.yul\":99:105   */\n      dup2\n        /* \"#utility.yul\":86:106   */\n      calldataload\n        /* \"#utility.yul\":77:106   */\n      swap1\n      pop\n        /* \"#utility.yul\":115:156   */\n      tag_39\n        /* \"#utility.yul\":150:155   */\n      dup2\n        /* \"#utility.yul\":115:156   */\n      tag_40\n      jump\t// in\n    tag_39:\n        /* \"#utility.yul\":7:162   */\n      swap3\n      swap2\n      pop\n      pop\n      jump\t// out\n        /* \"#utility.yul\":168:307   */\n    tag_41:\n        /* \"#utility.yul\":214:219   */\n      0x00\n        /* \"#utility.yul\":252:258   */\n      dup2\n        /* \"#utility.yul\":239:259   */\n      calldataload\n        /* \"#utility.yul\":230:259   */\n      swap1\n      pop\n        /* \"#utility.yul\":268:301   */\n      tag_43\n        /* \"#utility.yul\":295:300   */\n      dup2\n        /* \"#utility.yul\":268:301   */\n      tag_44\n      jump\t// in\n    tag_43:\n        /* \"#utility.yul\":168:307   */\n      swap3\n      swap2\n      pop\n      pop\n      jump\t// out\n        /* \"#utility.yul\":313:803   */\n    tag_13:\n        /* \"#utility.yul\":389:395   */\n      0x00\n        /* \"#utility.yul\":397:403   */\n      dup1\n        /* \"#utility.yul\":446:448   */\n      0x40\n        /* \"#utility.yul\":434:443   */\n      dup4\n        /* \"#utility.yul\":425:432   */\n      dup6\n        /* \"#utility.yul\":421:444   */\n      sub\n        /* \"#utility.yul\":417:449   */\n      slt\n        /* \"#utility.yul\":414:533   */\n      iszero\n      tag_46\n      jumpi\n        /* \"#utility.yul\":452:531   */\n      tag_47\n      tag_48\n      jump\t// in\n    tag_47:\n        /* \"#utility.yul\":414:533   */\n    tag_46:\n        /* \"#utility.yul\":572:573   */\n      0x00\n        /* \"#utility.yul\":597:650   */\n      tag_49\n        /* \"#utility.yul\":642:649   */\n      dup6\n        /* \"#utility.yul\":633:639   */\n      dup3\n        /* \"#utility.yul\":622:631   */\n      dup7\n        /* \"#utility.yul\":618:640   */\n      add\n        /* \"#utility.yul\":597:650   */\n      tag_41\n      jump\t// in\n    tag_49:\n        /* \"#utility.yul\":587:650   */\n      swap3\n      pop\n        /* \"#utility.yul\":543:660   */\n      pop\n        /* \"#utility.yul\":699:701   */\n      0x20\n        /* \"#utility.yul\":725:786   */\n      tag_50\n        /* \"#utility.yul\":778:785   */\n      dup6\n        /* \"#utility.yul\":769:775   */\n      dup3\n        /* \"#utility.yul\":758:767   */\n      dup7\n        /* \"#utility.yul\":754:776   */\n      add\n        /* \"#utility.yul\":725:786   */\n      tag_37\n      jump\t// in\n    tag_50:\n        /* \"#utility.yul\":715:786   */\n      swap2\n      pop\n        /* \"#utility.yul\":670:796   */\n      pop\n        /* \"#utility.yul\":313:803   */\n      swap3\n      pop\n      swap3\n      swap1\n      pop\n      jump\t// out\n        /* \"#utility.yul\":809:927   */\n    tag_51:\n        /* \"#utility.yul\":896:920   */\n      tag_53\n        /* \"#utility.yul\":914:919   */\n      dup2\n        /* \"#utility.yul\":896:920   */\n      tag_54\n      jump\t// in\n    tag_53:\n        /* \"#utility.yul\":891:894   */\n      dup3\n        /* \"#utility.yul\":884:921   */\n      mstore\n        /* \"#utility.yul\":809:927   */\n      pop\n      pop\n      jump\t// out\n        /* \"#utility.yul\":933:1299   */\n    tag_55:\n        /* \"#utility.yul\":1075:1078   */\n      0x00\n        /* \"#utility.yul\":1096:1163   */\n      tag_57\n        /* \"#utility.yul\":1160:1162   */\n      0x17\n        /* \"#utility.yul\":1155:1158   */\n      dup4\n        /* \"#utility.yul\":1096:1163   */\n      tag_58\n      jump\t// in\n    tag_57:\n        /* \"#utility.yul\":1089:1163   */\n      swap2\n      pop\n        /* \"#utility.yul\":1172:1265   */\n      tag_59\n        /* \"#utility.yul\":1261:1264   */\n      dup3\n        /* \"#utility.yul\":1172:1265   */\n      tag_60\n      jump\t// in\n    tag_59:\n        /* \"#utility.yul\":1290:1292   */\n      0x20\n        /* \"#utility.yul\":1285:1288   */\n      dup3\n        /* \"#utility.yul\":1281:1293   */\n      add\n        /* \"#utility.yul\":1274:1293   */\n      swap1\n      pop\n        /* \"#utility.yul\":933:1299   */\n      swap2\n      swap1\n      pop\n      jump\t// out\n        /* \"#utility.yul\":1305:1671   */\n    tag_61:\n        /* \"#utility.yul\":1447:1450   */\n      0x00\n        /* \"#utility.yul\":1468:1535   */\n      tag_63\n        /* \"#utility.yul\":1532:1534   */\n      0x12\n        /* \"#utility.yul\":1527:1530   */\n      dup4\n        /* \"#utility.yul\":1468:1535   */\n      tag_58\n      jump\t// in\n    tag_63:\n        /* \"#utility.yul\":1461:1535   */\n      swap2\n      pop\n        /* \"#utility.yul\":1544:1637   */\n      tag_64\n        /* \"#utility.yul\":1633:1636   */\n      dup3\n        /* \"#utility.yul\":1544:1637   */\n      tag_65\n      jump\t// in\n    tag_64:\n        /* \"#utility.yul\":1662:1664   */\n      0x20\n        /* \"#utility.yul\":1657:1660   */\n      dup3\n        /* \"#utility.yul\":1653:1665   */\n      add\n        /* \"#utility.yul\":1646:1665   */\n      swap1\n      pop\n        /* \"#utility.yul\":1305:1671   */\n      swap2\n      swap1\n      pop\n      jump\t// out\n        /* \"#utility.yul\":1677:1795   */\n    tag_66:\n        /* \"#utility.yul\":1764:1788   */\n      tag_68\n        /* \"#utility.yul\":1782:1787   */\n      dup2\n        /* \"#utility.yul\":1764:1788   */\n      tag_69\n      jump\t// in\n    tag_68:\n        /* \"#utility.yul\":1759:1762   */\n      dup3\n        /* \"#utility.yul\":1752:1789   */\n      mstore\n        /* \"#utility.yul\":1677:1795   */\n      pop\n      pop\n      jump\t// out\n        /* \"#utility.yul\":1801:2023   */\n    tag_19:\n        /* \"#utility.yul\":1894:1898   */\n      0x00\n        /* \"#utility.yul\":1932:1934   */\n      0x20\n        /* \"#utility.yul\":1921:1930   */\n      dup3\n        /* \"#utility.yul\":1917:1935   */\n      add\n        /* \"#utility.yul\":1909:1935   */\n      swap1\n      pop\n        /* \"#utility.yul\":1945:2016   */\n      tag_71\n        /* \"#utility.yul\":2013:2014   */\n      0x00\n        /* \"#utility.yul\":2002:2011   */\n      dup4\n        /* \"#utility.yul\":1998:2015   */\n      add\n        /* \"#utility.yul\":1989:1995   */\n      dup5\n        /* \"#utility.yul\":1945:2016   */\n      tag_51\n      jump\t// in\n    tag_71:\n        /* \"#utility.yul\":1801:2023   */\n      swap3\n      swap2\n      pop\n      pop\n      jump\t// out\n        /* \"#utility.yul\":2029:2448   */\n    tag_28:\n        /* \"#utility.yul\":2195:2199   */\n      0x00\n        /* \"#utility.yul\":2233:2235   */\n      0x20\n        /* \"#utility.yul\":2222:2231   */\n      dup3\n        /* \"#utility.yul\":2218:2236   */\n      add\n        /* \"#utility.yul\":2210:2236   */\n      swap1\n      pop\n        /* \"#utility.yul\":2282:2291   */\n      dup2\n        /* \"#utility.yul\":2276:2280   */\n      dup2\n        /* \"#utility.yul\":2272:2292   */\n      sub\n        /* \"#utility.yul\":2268:2269   */\n      0x00\n        /* \"#utility.yul\":2257:2266   */\n      dup4\n        /* \"#utility.yul\":2253:2270   */\n      add\n        /* \"#utility.yul\":2246:2293   */\n      mstore\n        /* \"#utility.yul\":2310:2441   */\n      tag_73\n        /* \"#utility.yul\":2436:2440   */\n      dup2\n        /* \"#utility.yul\":2310:2441   */\n      tag_55\n      jump\t// in\n    tag_73:\n        /* \"#utility.yul\":2302:2441   */\n      swap1\n      pop\n        /* \"#utility.yul\":2029:2448   */\n      swap2\n      swap1\n      pop\n      jump\t// out\n        /* \"#utility.yul\":2454:2873   */\n    tag_31:\n        /* \"#utility.yul\":2620:2624   */\n      0x00\n        /* \"#utility.yul\":2658:2660   */\n      0x20\n        /* \"#utility.yul\":2647:2656   */\n      dup3\n        /* \"#utility.yul\":2643:2661   */\n      add\n        /* \"#utility.yul\":2635:2661   */\n      swap1\n      pop\n        /* \"#utility.yul\":2707:2716   */\n      dup2\n        /* \"#utility.yul\":2701:2705   */\n      dup2\n        /* \"#utility.yul\":2697:2717   */\n      sub\n        /* \"#utility.yul\":2693:2694   */\n      0x00\n        /* \"#utility.yul\":2682:2691   */\n      dup4\n        /* \"#utility.yul\":2678:2695   */\n      add\n        /* \"#utility.yul\":2671:2718   */\n      mstore\n        /* \"#utility.yul\":2735:2866   */\n      tag_75\n        /* \"#utility.yul\":2861:2865   */\n      dup2\n        /* \"#utility.yul\":2735:2866   */\n      tag_61\n      jump\t// in\n    tag_75:\n        /* \"#utility.yul\":2727:2866   */\n      swap1\n      pop\n        /* \"#utility.yul\":2454:2873   */\n      swap2\n      swap1\n      pop\n      jump\t// out\n        /* \"#utility.yul\":2879:3101   */\n    tag_24:\n        /* \"#utility.yul\":2972:2976   */\n      0x00\n        /* \"#utility.yul\":3010:3012   */\n      0x20\n        /* \"#utility.yul\":2999:3008   */\n      dup3\n        /* \"#utility.yul\":2995:3013   */\n      add\n        /* \"#utility.yul\":2987:3013   */\n      swap1\n      pop\n        /* \"#utility.yul\":3023:3094   */\n      tag_77\n        /* \"#utility.yul\":3091:3092   */\n      0x00\n        /* \"#utility.yul\":3080:3089   */\n      dup4\n        /* \"#utility.yul\":3076:3093   */\n      add\n        /* \"#utility.yul\":3067:3073   */\n      dup5\n        /* \"#utility.yul\":3023:3094   */\n      tag_66\n      jump\t// in\n    tag_77:\n        /* \"#utility.yul\":2879:3101   */\n      swap3\n      swap2\n      pop\n      pop\n      jump\t// out\n        /* \"#utility.yul\":3188:3357   */\n    tag_58:\n        /* \"#utility.yul\":3272:3283   */\n      0x00\n        /* \"#utility.yul\":3306:3312   */\n      dup3\n        /* \"#utility.yul\":3301:3304   */\n      dup3\n        /* \"#utility.yul\":3294:3313   */\n      mstore\n        /* \"#utility.yul\":3346:3350   */\n      0x20\n        /* \"#utility.yul\":3341:3344   */\n      dup3\n        /* \"#utility.yul\":3337:3351   */\n      add\n        /* \"#utility.yul\":3322:3351   */\n      swap1\n      pop\n        /* \"#utility.yul\":3188:3357   */\n      swap3\n      swap2\n      pop\n      pop\n      jump\t// out\n        /* \"#utility.yul\":3363:3668   */\n    tag_9:\n        /* \"#utility.yul\":3403:3406   */\n      0x00\n        /* \"#utility.yul\":3422:3442   */\n      tag_82\n        /* \"#utility.yul\":3440:3441   */\n      dup3\n        /* \"#utility.yul\":3422:3442   */\n      tag_69\n      jump\t// in\n    tag_82:\n        /* \"#utility.yul\":3417:3442   */\n      swap2\n      pop\n        /* \"#utility.yul\":3456:3476   */\n      tag_83\n        /* \"#utility.yul\":3474:3475   */\n      dup4\n        /* \"#utility.yul\":3456:3476   */\n      tag_69\n      jump\t// in\n    tag_83:\n        /* \"#utility.yul\":3451:3476   */\n      swap3\n      pop\n        /* \"#utility.yul\":3610:3611   */\n      dup3\n        /* \"#utility.yul\":3542:3608   */\n      0xffffffffffffffffffffffffffffffffffffffffffffffffffffffffffffffff\n        /* \"#utility.yul\":3538:3612   */\n      sub\n        /* \"#utility.yul\":3535:3536   */\n      dup3\n        /* \"#utility.yul\":3532:3613   */\n      gt\n        /* \"#utility.yul\":3529:3636   */\n      iszero\n      tag_84\n      jumpi\n        /* \"#utility.yul\":3616:3634   */\n      tag_85\n      tag_86\n      jump\t// in\n    tag_85:\n        /* \"#utility.yul\":3529:3636   */\n    tag_84:\n        /* \"#utility.yul\":3660:3661   */\n      dup3\n        /* \"#utility.yul\":3657:3658   */\n      dup3\n        /* \"#utility.yul\":3653:3662   */\n      add\n        /* \"#utility.yul\":3646:3662   */\n      swap1\n      pop\n        /* \"#utility.yul\":3363:3668   */\n      swap3\n      swap2\n      pop\n      pop\n      jump\t// out\n        /* \"#utility.yul\":3674:3865   */\n    tag_35:\n        /* \"#utility.yul\":3714:3718   */\n      0x00\n        /* \"#utility.yul\":3734:3754   */\n      tag_88\n        /* \"#utility.yul\":3752:3753   */\n      dup3\n        /* \"#utility.yul\":3734:3754   */\n      tag_69\n      jump\t// in\n    tag_88:\n        /* \"#utility.yul\":3729:3754   */\n      swap2\n      pop\n        /* \"#utility.yul\":3768:3788   */\n      tag_89\n        /* \"#utility.yul\":3786:3787   */\n      dup4\n        /* \"#utility.yul\":3768:3788   */\n      tag_69\n      jump\t// in\n    tag_89:\n        /* \"#utility.yul\":3763:3788   */\n      swap3\n      pop\n        /* \"#utility.yul\":3807:3808   */\n      dup3\n        /* \"#utility.yul\":3804:3805   */\n      dup3\n        /* \"#utility.yul\":3801:3809   */\n      lt\n        /* \"#utility.yul\":3798:3832   */\n      iszero\n      tag_90\n      jumpi\n        /* \"#utility.yul\":3812:3830   */\n      tag_91\n      tag_86\n      jump\t// in\n    tag_91:\n        /* \"#utility.yul\":3798:3832   */\n    tag_90:\n        /* \"#utility.yul\":3857:3858   */\n      dup3\n        /* \"#utility.yul\":3854:3855   */\n      dup3\n        /* \"#utility.yul\":3850:3859   */\n      sub\n        /* \"#utility.yul\":3842:3859   */\n      swap1\n      pop\n        /* \"#utility.yul\":3674:3865   */\n      swap3\n      swap2\n      pop\n      pop\n      jump\t// out\n        /* \"#utility.yul\":3871:3967   */\n    tag_54:\n        /* \"#utility.yul\":3908:3915   */\n      0x00\n        /* \"#utility.yul\":3937:3961   */\n      tag_93\n        /* \"#utility.yul\":3955:3960   */\n      dup3\n        /* \"#utility.yul\":3937:3961   */\n      tag_94\n      jump\t// in\n    tag_93:\n        /* \"#utility.yul\":3926:3961   */\n      swap1\n      pop\n        /* \"#utility.yul\":3871:3967   */\n      swap2\n      swap1\n      pop\n      jump\t// out\n        /* \"#utility.yul\":3973:4077   */\n    tag_95:\n        /* \"#utility.yul\":4018:4025   */\n      0x00\n        /* \"#utility.yul\":4047:4071   */\n      tag_97\n        /* \"#utility.yul\":4065:4070   */\n      dup3\n        /* \"#utility.yul\":4047:4071   */\n      tag_94\n      jump\t// in\n    tag_97:\n        /* \"#utility.yul\":4036:4071   */\n      swap1\n      pop\n        /* \"#utility.yul\":3973:4077   */\n      swap2\n      swap1\n      pop\n      jump\t// out\n        /* \"#utility.yul\":4083:4209   */\n    tag_94:\n        /* \"#utility.yul\":4120:4127   */\n      0x00\n        /* \"#utility.yul\":4160:4202   */\n      0xffffffffffffffffffffffffffffffffffffffff\n        /* \"#utility.yul\":4153:4158   */\n      dup3\n        /* \"#utility.yul\":4149:4203   */\n      and\n        /* \"#utility.yul\":4138:4203   */\n      swap1\n      pop\n        /* \"#utility.yul\":4083:4209   */\n      swap2\n      swap1\n      pop\n      jump\t// out\n        /* \"#utility.yul\":4215:4292   */\n    tag_69:\n        /* \"#utility.yul\":4252:4259   */\n      0x00\n        /* \"#utility.yul\":4281:4286   */\n      dup2\n        /* \"#utility.yul\":4270:4286   */\n      swap1\n      pop\n        /* \"#utility.yul\":4215:4292   */\n      swap2\n      swap1\n      pop\n      jump\t// out\n        /* \"#utility.yul\":4298:4478   */\n    tag_86:\n        /* \"#utility.yul\":4346:4423   */\n      0x4e487b7100000000000000000000000000000000000000000000000000000000\n        /* \"#utility.yul\":4343:4344   */\n      0x00\n        /* \"#utility.yul\":4336:4424   */\n      mstore\n        /* \"#utility.yul\":4443:4447   */\n      0x11\n        /* \"#utility.yul\":4440:4441   */\n      0x04\n        /* \"#utility.yul\":4433:4448   */\n      mstore\n        /* \"#utility.yul\":4467:4471   */\n      0x24\n        /* \"#utility.yul\":4464:4465   */\n      0x00\n        /* \"#utility.yul\":4457:4472   */\n      revert\n        /* \"#utility.yul\":4607:4724   */\n    tag_48:\n        /* \"#utility.yul\":4716:4717   */\n      0x00\n        /* \"#utility.yul\":4713:4714   */\n      dup1\n        /* \"#utility.yul\":4706:4718   */\n      revert\n        /* \"#utility.yul\":4730:4903   */\n    tag_60:\n        /* \"#utility.yul\":4870:4895   */\n      0x4f6e6c79206f776e65722063616e207769746864726177000000000000000000\n        /* \"#utility.yul\":4866:4867   */\n      0x00\n        /* \"#utility.yul\":4858:4864   */\n      dup3\n        /* \"#utility.yul\":4854:4868   */\n      add\n        /* \"#utility.yul\":4847:4896   */\n      mstore\n        /* \"#utility.yul\":4730:4903   */\n      pop\n      jump\t// out\n        /* \"#utility.yul\":4909:5077   */\n    tag_65:\n        /* \"#utility.yul\":5049:5069   */\n      0x496e73756666696369656e742066756e64730000000000000000000000000000\n        /* \"#utility.yul\":5045:5046   */\n      0x00\n        /* \"#utility.yul\":5037:5043   */\n      dup3\n        /* \"#utility.yul\":5033:5047   */\n      add\n        /* \"#utility.yul\":5026:5070   */\n      mstore\n        /* \"#utility.yul\":4909:5077   */\n      pop\n      jump\t// out\n        /* \"#utility.yul\":5083:5221   */\n    tag_40:\n        /* \"#utility.yul\":5164:5196   */\n      tag_107\n        /* \"#utility.yul\":5190:5195   */\n      dup2\n        /* \"#utility.yul\":5164:5196   */\n      tag_95\n      jump\t// in\n    tag_107:\n        /* \"#utility.yul\":5157:5162   */\n      dup2\n        /* \"#utility.yul\":5154:5197   */\n      eq\n        /* \"#utility.yul\":5144:5215   */\n      tag_108\n      jumpi\n        /* \"#utility.yul\":5211:5212   */\n      0x00\n        /* \"#utility.yul\":5208:5209   */\n      dup1\n        /* \"#utility.yul\":5201:5213   */\n      revert\n        /* \"#utility.yul\":5144:5215   */\n    tag_108:\n        /* \"#utility.yul\":5083:5221   */\n      pop\n      jump\t// out\n        /* \"#utility.yul\":5227:5349   */\n    tag_44:\n        /* \"#utility.yul\":5300:5324   */\n      tag_110\n        /* \"#utility.yul\":5318:5323   */\n      dup2\n        /* \"#utility.yul\":5300:5324   */\n      tag_69\n      jump\t// in\n    tag_110:\n        /* \"#utility.yul\":5293:5298   */\n      dup2\n        /* \"#utility.yul\":5290:5325   */\n      eq\n        /* \"#utility.yul\":5280:5343   */\n      tag_111\n      jumpi\n        /* \"#utility.yul\":5339:5340   */\n      0x00\n        /* \"#utility.yul\":5336:5337   */\n      dup1\n        /* \"#utility.yul\":5329:5341   */\n      revert\n        /* \"#utility.yul\":5280:5343   */\n    tag_111:\n        /* \"#utility.yul\":5227:5349   */\n      pop\n      jump\t// out\n\n    auxdata: 0xa2646970667358221220bcf251f0d1b8abc1daa9cb8e0ea8290796cff632d2ddfa6379b562b4e008291b64736f6c63430008070033\n}\n",
				"bytecode": {
					"linkReferences": {},
					"object": "608060405234801561001057600080fd5b50336000806101000a81548173ffffffffffffffffffffffffffffffffffffffff021916908373ffffffffffffffffffffffffffffffffffffffff160217905550610553806100606000396000f3fe6080604052600436106100375760003560e01c8062f714ce1461005c5780638da5cb5b14610085578063b69ef8a8146100b057610057565b3661005757346001600082825461004e9190610391565b92505081905550005b600080fd5b34801561006857600080fd5b50610083600480360381019061007e9190610266565b6100db565b005b34801561009157600080fd5b5061009a610212565b6040516100a7919061030a565b60405180910390f35b3480156100bc57600080fd5b506100c5610236565b6040516100d29190610365565b60405180910390f35b60008054906101000a900473ffffffffffffffffffffffffffffffffffffffff1673ffffffffffffffffffffffffffffffffffffffff163373ffffffffffffffffffffffffffffffffffffffff1614610169576040517f08c379a000000000000000000000000000000000000000000000000000000000815260040161016090610325565b60405180910390fd5b6001548211156101ae576040517f08c379a00000000000000000000000000000000000000000000000000000000081526004016101a590610345565b60405180910390fd5b8073ffffffffffffffffffffffffffffffffffffffff166108fc839081150290604051600060405180830381858888f193505050501580156101f4573d6000803e3d6000fd5b50816001600082825461020791906103e7565b925050819055505050565b60008054906101000a900473ffffffffffffffffffffffffffffffffffffffff1681565b60015481565b60008135905061024b816104ef565b92915050565b60008135905061026081610506565b92915050565b6000806040838503121561027d5761027c610498565b5b600061028b85828601610251565b925050602061029c8582860161023c565b9150509250929050565b6102af8161041b565b82525050565b60006102c2601783610380565b91506102cd8261049d565b602082019050919050565b60006102e5601283610380565b91506102f0826104c6565b602082019050919050565b6103048161045f565b82525050565b600060208201905061031f60008301846102a6565b92915050565b6000602082019050818103600083015261033e816102b5565b9050919050565b6000602082019050818103600083015261035e816102d8565b9050919050565b600060208201905061037a60008301846102fb565b92915050565b600082825260208201905092915050565b600061039c8261045f565b91506103a78361045f565b9250827fffffffffffffffffffffffffffffffffffffffffffffffffffffffffffffffff038211156103dc576103db610469565b5b828201905092915050565b60006103f28261045f565b91506103fd8361045f565b9250828210156104105761040f610469565b5b828203905092915050565b60006104268261043f565b9050919050565b60006104388261043f565b9050919050565b600073ffffffffffffffffffffffffffffffffffffffff82169050919050565b6000819050919050565b7f4e487b7100000000000000000000000000000000000000000000000000000000600052601160045260246000fd5b600080fd5b7f4f6e6c79206f776e65722063616e207769746864726177000000000000000000600082015250565b7f496e73756666696369656e742066756e64730000000000000000000000000000600082015250565b6104f88161042d565b811461050357600080fd5b50565b61050f8161045f565b811461051a57600080fd5b5056fea2646970667358221220bcf251f0d1b8abc1daa9cb8e0ea8290796cff632d2ddfa6379b562b4e008291b64736f6c63430008070033",
					"opcodes": "PUSH1 0x80 PUSH1 0x40 MSTORE CALLVALUE DUP1 ISZERO PUSH2 0x10 JUMPI PUSH1 0x0 DUP1 REVERT JUMPDEST POP CALLER PUSH1 0x0 DUP1 PUSH2 0x100 EXP DUP2 SLOAD DUP2 PUSH20 0xFFFFFFFFFFFFFFFFFFFFFFFFFFFFFFFFFFFFFFFF MUL NOT AND SWAP1 DUP4 PUSH20 0xFFFFFFFFFFFFFFFFFFFFFFFFFFFFFFFFFFFFFFFF AND MUL OR SWAP1 SSTORE POP PUSH2 0x553 DUP1 PUSH2 0x60 PUSH1 0x0 CODECOPY PUSH1 0x0 RETURN INVALID PUSH1 0x80 PUSH1 0x40 MSTORE PUSH1 0x4 CALLDATASIZE LT PUSH2 0x37 JUMPI PUSH1 0x0 CALLDATALOAD PUSH1 0xE0 SHR DUP1 PUSH3 0xF714CE EQ PUSH2 0x5C JUMPI DUP1 PUSH4 0x8DA5CB5B EQ PUSH2 0x85 JUMPI DUP1 PUSH4 0xB69EF8A8 EQ PUSH2 0xB0 JUMPI PUSH2 0x57 JUMP JUMPDEST CALLDATASIZE PUSH2 0x57 JUMPI CALLVALUE PUSH1 0x1 PUSH1 0x0 DUP3 DUP3 SLOAD PUSH2 0x4E SWAP2 SWAP1 PUSH2 0x391 JUMP JUMPDEST SWAP3 POP POP DUP2 SWAP1 SSTORE POP STOP JUMPDEST PUSH1 0x0 DUP1 REVERT JUMPDEST CALLVALUE DUP1 ISZERO PUSH2 0x68 JUMPI PUSH1 0x0 DUP1 REVERT JUMPDEST POP PUSH2 0x83 PUSH1 0x4 DUP1 CALLDATASIZE SUB DUP2 ADD SWAP1 PUSH2 0x7E SWAP2 SWAP1 PUSH2 0x266 JUMP JUMPDEST PUSH2 0xDB JUMP JUMPDEST STOP JUMPDEST CALLVALUE DUP1 ISZERO PUSH2 0x91 JUMPI PUSH1 0x0 DUP1 REVERT JUMPDEST POP PUSH2 0x9A PUSH2 0x212 JUMP JUMPDEST PUSH1 0x40 MLOAD PUSH2 0xA7 SWAP2 SWAP1 PUSH2 0x30A JUMP JUMPDEST PUSH1 0x40 MLOAD DUP1 SWAP2 SUB SWAP1 RETURN JUMPDEST CALLVALUE DUP1 ISZERO PUSH2 0xBC JUMPI PUSH1 0x0 DUP1 REVERT JUMPDEST POP PUSH2 0xC5 PUSH2 0x236 JUMP JUMPDEST PUSH1 0x40 MLOAD PUSH2 0xD2 SWAP2 SWAP1 PUSH2 0x365 JUMP JUMPDEST PUSH1 0x40 MLOAD DUP1 SWAP2 SUB SWAP1 RETURN JUMPDEST PUSH1 0x0 DUP1 SLOAD SWAP1 PUSH2 0x100 EXP SWAP1 DIV PUSH20 0xFFFFFFFFFFFFFFFFFFFFFFFFFFFFFFFFFFFFFFFF AND PUSH20 0xFFFFFFFFFFFFFFFFFFFFFFFFFFFFFFFFFFFFFFFF AND CALLER PUSH20 0xFFFFFFFFFFFFFFFFFFFFFFFFFFFFFFFFFFFFFFFF AND EQ PUSH2 0x169 JUMPI PUSH1 0x40 MLOAD PUSH32 0x8C379A000000000000000000000000000000000000000000000000000000000 DUP2 MSTORE PUSH1 0x4 ADD PUSH2 0x160 SWAP1 PUSH2 0x325 JUMP JUMPDEST PUSH1 0x40 MLOAD DUP1 SWAP2 SUB SWAP1 REVERT JUMPDEST PUSH1 0x1 SLOAD DUP3 GT ISZERO PUSH2 0x1AE JUMPI PUSH1 0x40 MLOAD PUSH32 0x8C379A000000000000000000000000000000000000000000000000000000000 DUP2 MSTORE PUSH1 0x4 ADD PUSH2 0x1A5 SWAP1 PUSH2 0x345 JUMP JUMPDEST PUSH1 0x40 MLOAD DUP1 SWAP2 SUB SWAP1 REVERT JUMPDEST DUP1 PUSH20 0xFFFFFFFFFFFFFFFFFFFFFFFFFFFFFFFFFFFFFFFF AND PUSH2 0x8FC DUP4 SWAP1 DUP2 ISZERO MUL SWAP1 PUSH1 0x40 MLOAD PUSH1 0x0 PUSH1 0x40 MLOAD DUP1 DUP4 SUB DUP2 DUP6 DUP9 DUP9 CALL SWAP4 POP POP POP POP ISZERO DUP1 ISZERO PUSH2 0x1F4 JUMPI RETURNDATASIZE PUSH1 0x0 DUP1 RETURNDATACOPY RETURNDATASIZE PUSH1 0x0 REVERT JUMPDEST POP DUP2 PUSH1 0x1 PUSH1 0x0 DUP3 DUP3 SLOAD PUSH2 0x207 SWAP2 SWAP1 PUSH2 0x3E7 JUMP JUMPDEST SWAP3 POP POP DUP2 SWAP1 SSTORE POP POP POP JUMP JUMPDEST PUSH1 0x0 DUP1 SLOAD SWAP1 PUSH2 0x100 EXP SWAP1 DIV PUSH20 0xFFFFFFFFFFFFFFFFFFFFFFFFFFFFFFFFFFFFFFFF AND DUP2 JUMP JUMPDEST PUSH1 0x1 SLOAD DUP2 JUMP JUMPDEST PUSH1 0x0 DUP2 CALLDATALOAD SWAP1 POP PUSH2 0x24B DUP2 PUSH2 0x4EF JUMP JUMPDEST SWAP3 SWAP2 POP POP JUMP JUMPDEST PUSH1 0x0 DUP2 CALLDATALOAD SWAP1 POP PUSH2 0x260 DUP2 PUSH2 0x506 JUMP JUMPDEST SWAP3 SWAP2 POP POP JUMP JUMPDEST PUSH1 0x0 DUP1 PUSH1 0x40 DUP4 DUP6 SUB SLT ISZERO PUSH2 0x27D JUMPI PUSH2 0x27C PUSH2 0x498 JUMP JUMPDEST JUMPDEST PUSH1 0x0 PUSH2 0x28B DUP6 DUP3 DUP7 ADD PUSH2 0x251 JUMP JUMPDEST SWAP3 POP POP PUSH1 0x20 PUSH2 0x29C DUP6 DUP3 DUP7 ADD PUSH2 0x23C JUMP JUMPDEST SWAP2 POP POP SWAP3 POP SWAP3 SWAP1 POP JUMP JUMPDEST PUSH2 0x2AF DUP2 PUSH2 0x41B JUMP JUMPDEST DUP3 MSTORE POP POP JUMP JUMPDEST PUSH1 0x0 PUSH2 0x2C2 PUSH1 0x17 DUP4 PUSH2 0x380 JUMP JUMPDEST SWAP2 POP PUSH2 0x2CD DUP3 PUSH2 0x49D JUMP JUMPDEST PUSH1 0x20 DUP3 ADD SWAP1 POP SWAP2 SWAP1 POP JUMP JUMPDEST PUSH1 0x0 PUSH2 0x2E5 PUSH1 0x12 DUP4 PUSH2 0x380 JUMP JUMPDEST SWAP2 POP PUSH2 0x2F0 DUP3 PUSH2 0x4C6 JUMP JUMPDEST PUSH1 0x20 DUP3 ADD SWAP1 POP SWAP2 SWAP1 POP JUMP JUMPDEST PUSH2 0x304 DUP2 PUSH2 0x45F JUMP JUMPDEST DUP3 MSTORE POP POP JUMP JUMPDEST PUSH1 0x0 PUSH1 0x20 DUP3 ADD SWAP1 POP PUSH2 0x31F PUSH1 0x0 DUP4 ADD DUP5 PUSH2 0x2A6 JUMP JUMPDEST SWAP3 SWAP2 POP POP JUMP JUMPDEST PUSH1 0x0 PUSH1 0x20 DUP3 ADD SWAP1 POP DUP2 DUP2 SUB PUSH1 0x0 DUP4 ADD MSTORE PUSH2 0x33E DUP2 PUSH2 0x2B5 JUMP JUMPDEST SWAP1 POP SWAP2 SWAP1 POP JUMP JUMPDEST PUSH1 0x0 PUSH1 0x20 DUP3 ADD SWAP1 POP DUP2 DUP2 SUB PUSH1 0x0 DUP4 ADD MSTORE PUSH2 0x35E DUP2 PUSH2 0x2D8 JUMP JUMPDEST SWAP1 POP SWAP2 SWAP1 POP JUMP JUMPDEST PUSH1 0x0 PUSH1 0x20 DUP3 ADD SWAP1 POP PUSH2 0x37A PUSH1 0x0 DUP4 ADD DUP5 PUSH2 0x2FB JUMP JUMPDEST SWAP3 SWAP2 POP POP JUMP JUMPDEST PUSH1 0x0 DUP3 DUP3 MSTORE PUSH1 0x20 DUP3 ADD SWAP1 POP SWAP3 SWAP2 POP POP JUMP JUMPDEST PUSH1 0x0 PUSH2 0x39C DUP3 PUSH2 0x45F JUMP JUMPDEST SWAP2 POP PUSH2 0x3A7 DUP4 PUSH2 0x45F JUMP JUMPDEST SWAP3 POP DUP3 PUSH32 0xFFFFFFFFFFFFFFFFFFFFFFFFFFFFFFFFFFFFFFFFFFFFFFFFFFFFFFFFFFFFFFFF SUB DUP3 GT ISZERO PUSH2 0x3DC JUMPI PUSH2 0x3DB PUSH2 0x469 JUMP JUMPDEST JUMPDEST DUP3 DUP3 ADD SWAP1 POP SWAP3 SWAP2 POP POP JUMP JUMPDEST PUSH1 0x0 PUSH2 0x3F2 DUP3 PUSH2 0x45F JUMP JUMPDEST SWAP2 POP PUSH2 0x3FD DUP4 PUSH2 0x45F JUMP JUMPDEST SWAP3 POP DUP3 DUP3 LT ISZERO PUSH2 0x410 JUMPI PUSH2 0x40F PUSH2 0x469 JUMP JUMPDEST JUMPDEST DUP3 DUP3 SUB SWAP1 POP SWAP3 SWAP2 POP POP JUMP JUMPDEST PUSH1 0x0 PUSH2 0x426 DUP3 PUSH2 0x43F JUMP JUMPDEST SWAP1 POP SWAP2 SWAP1 POP JUMP JUMPDEST PUSH1 0x0 PUSH2 0x438 DUP3 PUSH2 0x43F JUMP JUMPDEST SWAP1 POP SWAP2 SWAP1 POP JUMP JUMPDEST PUSH1 0x0 PUSH20 0xFFFFFFFFFFFFFFFFFFFFFFFFFFFFFFFFFFFFFFFF DUP3 AND SWAP1 POP SWAP2 SWAP1 POP JUMP JUMPDEST PUSH1 0x0 DUP2 SWAP1 POP SWAP2 SWAP1 POP JUMP JUMPDEST PUSH32 0x4E487B7100000000000000000000000000000000000000000000000000000000 PUSH1 0x0 MSTORE PUSH1 0x11 PUSH1 0x4 MSTORE PUSH1 0x24 PUSH1 0x0 REVERT JUMPDEST PUSH1 0x0 DUP1 REVERT JUMPDEST PUSH32 0x4F6E6C79206F776E65722063616E207769746864726177000000000000000000 PUSH1 0x0 DUP3 ADD MSTORE POP JUMP JUMPDEST PUSH32 0x496E73756666696369656E742066756E64730000000000000000000000000000 PUSH1 0x0 DUP3 ADD MSTORE POP JUMP JUMPDEST PUSH2 0x4F8 DUP2 PUSH2 0x42D JUMP JUMPDEST DUP2 EQ PUSH2 0x503 JUMPI PUSH1 0x0 DUP1 REVERT JUMPDEST POP JUMP JUMPDEST PUSH2 0x50F DUP2 PUSH2 0x45F JUMP JUMPDEST DUP2 EQ PUSH2 0x51A JUMPI PUSH1 0x0 DUP1 REVERT JUMPDEST POP JUMP INVALID LOG2 PUSH5 0x6970667358 0x22 SLT KECCAK256 0xBC CALLCODE MLOAD CREATE 0xD1 0xB8 0xAB 0xC1 0xDA 0xA9 0xCB DUP15 0xE 0xA8 0x29 SMOD SWAP7 0xCF 0xF6 ORIGIN 0xD2 0xDD STATICCALL PUSH4 0x79B562B4 0xE0 ADDMOD 0x29 SHL PUSH5 0x736F6C6343 STOP ADDMOD SMOD STOP CALLER "
				},
				"gasEstimates": {
					"creation": {
						"codeDepositCost": "272600",
						"executionCost": "24578",
						"totalCost": "297178"
					},
					"external": {
						"balance()": "2451",
						"owner()": "2511",
						"withdraw(uint256,address)": "infinite"
					}
				},
				"methodIdentifiers": {
					"balance()": "b69ef8a8",
					"owner()": "8da5cb5b",
					"withdraw(uint256,address)": "00f714ce"
				}
			},
			"storageLayout": {
				"storage": [
					{
						"astId": 3,
						"contract": "FeeCollector.sol:FeeCollector",
						"label": "owner",
						"offset": 0,
						"slot": "0",
						"type": "t_address"
					},
					{
						"astId": 5,
						"contract": "FeeCollector.sol:FeeCollector",
						"label": "balance",
						"offset": 0,
						"slot": "1",
						"type": "t_uint256"
					}
				],
				"types": {
					"t_address": {
						"encoding": "inplace",
						"label": "address",
						"numberOfBytes": "20"
					},
					"t_uint256": {
						"encoding": "inplace",
						"label": "uint256",
						"numberOfBytes": "32"
					}
				}
			},
			"userdoc": {
				"kind": "user",
				"methods": {},
				"version": 1
			}
		}
	}
}